:020000041000EA
:1004000000C002082B0500100D0000008905001037
:1004100000000000000000000000000000000000DC
:100420000000000000000000000000008505001032
:100430000000000000000000850500108505001088
:100440008505001085050010850500108505001044
:100450008505001085050010850500108505001034
:100460008505001085050010850500108505001024
:100470008505001085050010850500108505001014
:100480008505001085050010850500108505001004
:1004900085050010850500108505001085050010F4
:1004A00085050010850500108505001085050010E4
:1004B00085050010850500108505001085050010D4
:1004C00010B5064C2378002B07D1054B002B02D02A
:1004D000044800E000BF0123237010BDD8060208C5
:1004E0000000000004A20010044B10B5002B03D044
:1004F0000349044800E000BF10BDC04600000000F2
:10050000DC06020804A200100230800803D001308B
:100510000238FCD1C046C0467047EFF3108072B677
:10052000704780F3108870477047FFF7FDFF72B681
:100530000E4C0F4DAC4209DA21686268A368043B97
:1005400002DBC858D050FAE70C34F3E709490A4AED
:100550000020521A02DD043A8850FCDC07480849A2
:100560000860BFF34F8F07F0E1FDFEE710A2001017
:1005700028A20010D8060208501102080000020844
:1005800008ED00E0FEE7FEE700B5042071460842F2
:1005900002D0EFF3098002E0EFF30880043006F0A8
:1005A0002FFEFEE70300093B0122042B02D920386D
:1005B0004242424110007047F0B500251700060086
:1005C0002C0089B003930E9B02901B0CDBB20493AA
:1005D0000E9B00911B0ADBB205930E9BDBB20793C7
:1005E000731C069333780193002B08D0009B002BDB
:1005F00022DB029A731C9B1A009A9A421CDA0E9B09
:10060000DBB2002B00D1B4E0019A9A4200D0AEE0F8
:10061000009B002B06DB029A731C9B1A009A9342E4
:1006200000DDA4E0B31C7678032D00D9A1E02800FA
:1006300007F060FE8989637B0198FFF7B3FF00280C
:1006400039D1079B019A9342D9D04F4E1100300007
:1006500009F044F9031E08D1049B019A93420BD080
:10066000059B93426FD133003F33032D23D82800DD
:1006700007F040FE0510233533003E33F5E7002F29
:1006800006D0039A94425ED23F4A9B1A9B003B5588
:10069000012510E0621C002F0BD003998A4252D230
:1006A00039493C195B1A2178181101431B0121704B
:1006B000BB5414000225069E92E7621C002F0BD04B
:1006C00003998A423FD230493C195B1A217898102D
:1006D00001439B012170BB5414000325EBE7002F5D
:1006E00008D0039A94422ED227493A195B1A1178FE
:1006F0000B43137001340025DDE71D00002E22D0CE
:10070000009B002B22DB029B009AEB1A9A421DDA17
:10071000019BB34217D1009B002B04DD029B009A82
:10072000EB1A93420FDC2E786B1C029A9D1A002E56
:1007300004D0009B002B11DBAB420FDA002F18D046
:100740003B5D002B15D00124644219E03000FFF717
:1007500029FF0028DCD02E780135CFE73000FFF7E5
:1007600021FF0028EFD0029B5E5D0135DFE7002D01
:10077000E9D1039B9C42E6D2002F01D000233B55D8
:10078000200009B0F0BDC046509B0010002210B5FB
:1007900004001000A15C0B00303B092B09D8303855
:1007A0000818531C032A03D000011A00042BF1D1AE
:1007B00010BD0B00413B052B01D83738F0E70B008B
:1007C000613B052B01D85738EAE70020F0E700002D
:1007D000F0B50B7885B0039017004D1C222B17D075
:1007E000116000202AE05C2A07D1019A5278002A81
:1007F000F7D0019A013301320192019A013201923C
:10080000019A1278222A00D1A7E0002AEBD1E8E76A
:1008100001950023F4E72B785C2B11D02370013570
:100820000134019B9D42F6D30023039A23700833C1
:10083000D36013000198029A01301A6105B0F0BD2F
:100840006B78662B63D014D82F2B61D007D8222B5E
:100850005ED0484B3D601B6802989847C1E75C2B0F
:1008600056D0622BF5D1082323700134063BED18D6
:10087000D7E7722B50D006D86E2BEAD10A2323700B
:100880000134083BF3E7742B48D0752BE1D1019B71
:100890005B1B052BDDDDA81CFFF778FF364B374AC5
:1008A000C31806009342D4D90028D2D0344B334A1F
:1008B000C318934234D8019AAB1DD31A052BC8DD57
:1008C000AB795C2BC5D1EB79752BC2D128000830F0
:1008D000FFF75CFF284B294AC3189342B9D8294B2C
:1008E000B6021E4080238005800D5B020643F61889
:1008F0000C23254A96421FD9244A9642A9D83F2064
:100900003040802676420643E670042212E00C2333
:10091000237001340223AAE70D23F9E70923F7E73F
:100920007F2804D91A4B98420ED90623E1E7062303
:1009300001222070A4189AE73F203040802676429A
:100940000643A6700322F5E73F20802306405B4262
:100950001E43667086330222ECE7019A501AC01AD1
:100960000C4B04301B6898470290041E00D058E7D7
:1009700037E7C046C00002080024FFFFFF03000065
:100980000028FFFF00FC0F00FFFF0000FFFF10002A
:10099000FF070000C4000208002803D00378013BD1
:1009A0001F2B00D970470130F6E70000064B10B549
:1009B0001B6828209847041E03D02822002108F035
:1009C000CAFE200010BDC046C40002080849094AFA
:1009D000002803D1084B0B60084B07E00368002B8D
:1009E00000D1054B0B604368002BF5D013607047B6
:1009F000C4000208C0000208F99600100D9700100C
:100A0000F8B5802604007600002C00D1F8BDE3681C
:100A10002768334204D1A068002801D0FFF7F0FF17
:100A2000E3680B4D334204D12069002801D02B68C4
:100A300098478022E3689200134204D1206A00287C
:100A400001D02B68984720002B6898473C00DBE7D3
:100A5000C0000208F0B5040085B00F0016000029A0
:100A600001D1002013E004226F49380008F056FF3E
:100A7000002803D10223E360381D08E005226B49FA
:100A8000380008F04BFF002803D1E060781D05B066
:100A9000F0BD04226649380008F040FF002806D166
:100AA00001230122E3600023A261E361E4E73B78D4
:100AB000222B05D1320039002000FFF789FEE6E73E
:100AC0002D2B03D01A00303A092A24D800250A22F7
:100AD00003A93800039508F0DFFF0300039887425D
:100AE000BFD05A1C0AD1534A914211D10122514B15
:100AF0005242A261E3610423E360C8E7002B07D1FF
:100B000080221206914203D1802300221B06F0E7C7
:100B1000A361E161EFE75B2B35D1781CFFF73CFF68
:100B2000037805005D2B26D00023013D019300933F
:100B3000FFF73CFF009B071E6FD0002B19D0019BD5
:100B400018604360681CFFF727FF3200010038007F
:100B5000FFF780FFFFF720FF051E06D003780197FF
:100B60002C2BE5D05D2B08D030600098FFF748FFB4
:100B700077E70090E6E7002300931023E360009BF3
:100B8000681CA36083E77B2B4BD1781CFFF704FF25
:100B9000037807007D2B38D00023013F0193009399
:100BA000FFF704FF009B051E37D0002B17D0019BD9
:100BB00018604360781CFFF7EFFE32000100280048
:100BC000FFF706FEFFF7E8FE0028CED02B692B6268
:100BD00000232B6103783A2B03D03060C5E70090E7
:100BE000E8E70130FFF7D8FE320001002800FFF7E8
:100BF00031FFFFF7D1FE071EB7D0037801952C2BEC
:100C0000CED07D2B03D03060AFE7002300932023AC
:100C1000E360009B781CA36039E7002B00D120E73C
:100C2000A3E737601DE7C0468F9B0010949B001020
:100C30009A9B0010FFFFFF7FF7B505000E000192A1
:100C40000F1E00D1144FFFF7B1FE002304003B60DC
:100C500098420DD02800FFF79FFE3A0001002000C7
:100C6000FFF7F8FE051E05D12000FFF7C9FE00249E
:100C70002000FEBD019B002B0AD0FFF78DFE0378FC
:100C80000500002B04D02000FFF7BAFE3D60EEE720
:100C9000002EEDD03560EBE7F4060208002210B517
:100CA0001100FFF7C9FF10BD802233B5450AFFB020
:100CB0006D02040029009200684608F043FD0123FC
:100CC0006A46E405E40D69462800135501F09AFCD4
:100CD0007FB036BD10B5183909180B780020012BEC
:100CE00002D00800FFF7E0FF10BD0000F0B58DB0A6
:100CF0001D0015AB1B780E0003930023170005A9F8
:100D000006AA0593069300F048F9041E4BD12F4B19
:100D10003200009306993B000598FFF74DFC002830
:100D200051DD0C22210009A808F015FD022008AAB7
:100D300007A9FF300794089400F08EFF002802D026
:100D4000652464422FE02900079800F04BFE00283C
:100D5000F6D1033008AA07A9FF3000F07DFF002874
:100D6000EED11299079800F0DBFD041E1BD109A9F2
:100D7000300000F02AF9041E15D112990A9800F0EB
:100D80002BFD041E0FD1039A29000B9800F03CF9AB
:100D9000041E05D1139B002B08D1149B002B0DD1F1
:100DA0000998FFF72DFE20000DB0F0BD13990998AA
:100DB00000F006FC0028F0D00400F1E7149909982F
:100DC00000F0D4FCF8E71424BBE7C046005F2D0018
:100DD000F0B58BB01F0010AB059204CB04911B78CB
:100DE00006920793002309AA08A90600089309930D
:100DF00000F0D3F8041E22D1099800F06BF804002B
:100E000008F07AFC051E20D0114B020000930999CE
:100E100023000898FFF7D0FB002813DD079B220072
:100E20000393069B01970293059B290000933000D2
:100E3000049BFFF75BFF0400280008F067FC20001C
:100E40000BB0F0BD14246442F6E764246442F6E774
:100E5000005F2D0010B5010004000B4808F04CFDA8
:100E6000002398420DD02100084808F045FD0123D9
:100E7000002806D02100064808F03EFD43424341C9
:100E80005B00180010BDC046779D0010809D0010CB
:100E9000889D001010B5010004000B4808F02CFDDF
:100EA000002398420DD02100084808F025FD0123B9
:100EB000002806D02100064808F01EFD43424341A9
:100EC0005B00180010BDC0465D9D0010669D0010BF
:100ED000729D0010032358438008984304307047E4
:100EE000F8B50D0000281FD000291DD0C368086088
:100EF000202B1CD184680F4F002C01D12000F8BD9D
:100F0000266A002E06D031000B4808F0F5FC0028B8
:100F100002D16C602468EFE73100380008F0ECFC87
:100F20000028F7D1AC60F5E701204042E7E7022056
:100F3000FBE7C046969D0010909D0010F0B507009D
:100F40000D00002491B001AE002D02D1280011B097
:100F5000F0BD296A002904D0380008F0CDFC002833
:100F6000F4D0AB68002B06D00E2C12D8A2009551FD
:100F700001341D00E8E72B68002BFAD1002C0AD0C1
:100F8000013CA3009B591B68002BF2D1002CF7D128
:100F9000EFE70025DAE72500D8E7F8B50E002E21A7
:100FA000170008F09BFC041E0CD0451C2E212800C5
:100FB00008F094FC002805D0001B013838600020A0
:100FC0003560F8BD16204042FBE770B505000020F3
:100FD0000C00FFF7FBFC2800FFF760FE002803D0A1
:100FE0002100FFF77DFF70BD05204042FBE7002395
:100FF00004220133002901D1904203D952001D2B54
:10100000F7D1023318007047F0B50C0087B001002B
:10101000C1480592FFF792FF002800D18BE2836858
:101020000093019300231F0004930393019B002B63
:101030006CD1009BDB680193202B00D07CE2009EEA
:101040003100B648FFF77AFF051E00D1E6E0037EC7
:10105000059A9A4200D0E1E00100B148FFF76EFF27
:10106000002800D1D4E0836923702900AD48FFF740
:1010700065FF1423002800D0836963602900AA4813
:10108000FFF75CFF0123002802D0C3685A1E93417A
:1010900023722900A548FFF751FF002800D1BAE0CC
:1010A0008369E360002329006376A148FFF746FFC8
:1010B000002807D001699F4808F01EFC002801D1D4
:1010C000012363762300627E49331A70009E002F4D
:1010D00000D031E231009148FFF730FF002800D105
:1010E000A1E02278037E9A4200D09CE03100924831
:1010F000FFF724FF002800D10AE130238269551E42
:101100006B43E3181A760223019393E001998B480D
:10111000FFF714FF002802D08668002E03D1019B40
:101120001B68019382E731008548FFF707FF00281D
:101130004BD0002503690293824AAB00995802986C
:1011400008F0DAFB002800D1F9E10135042DF3D1D4
:1011500000257D4AAB009958029808F0CDFB071E88
:1011600005D00135172DF4D10527183D7F423100F8
:101170007648FFF7E3FE002801D08369049331002D
:101180007348FFF7DBFE002804D0C1698069FFF7D0
:101190002EFF03906B1C18D0039B002B15DDA9229A
:1011A0006B00E31852009A5C012A04D12A000499CA
:1011B0000E32D20011515422FF329B5C012B04D11C
:1011C0000E35ED00039B65196B603668A5E7614934
:1011D000029808F091FB0028F7D131005B48FFF737
:1011E000ADFE002806D0A2235B00E35C012B01D1F9
:1011F0008369A36631005648FFF7A0FE0028E4D0BB
:101200004623FF33E35C012BDFD18369E366DCE730
:1012100001277F4229E7FA231B0142E73668002EA7
:1012200000D00DE752E73668002E00D052E70123C8
:1012300035000193002E00D098E031004648FFF7BA
:101240007DFE002800D0FFE031004448FFF776FE25
:1012500000280ED00D236B43E3182A33FF331B788D
:10126000012B06D1C2682F33511E8A416B43E3180C
:101270005A7031003A48FFF761FE00280ED00D2366
:101280006B43E3182C33FF331B78012B06D1C26864
:101290002F33511E8A416B43E3181A7431003148D1
:1012A000FFF74CFE00280CD00D236B43E3182C33C2
:1012B000FF331B78012B04D12F336B438269E31872
:1012C0009A7431002848FFF739FE002800D1CBE09E
:1012D000C368102B00D0C7E082680D2123200023B3
:1012E0006943684361180290002A00D1BCE01F00E6
:1012F0003237FF37CF5D012F04D10298C7189069AC
:101300002C37C8550133032B00D1ADE01268EBE751
:101310000123050001938DE75D9D00103F9C0010A7
:10132000BE9B0010C59B0010CD9B0010D89B0010E9
:10133000E49B0010F19B0010F69B00109F9B001097
:10134000B89D001024010208C8000208A99B0010E3
:10135000B19B0010B69B0010029C00109B9D0010DA
:10136000199C0010219C0010309C00103100864810
:10137000FFF7E4FD002800D15FE78768002F00D168
:101380005BE739008148FFF7D9FD00282DD00369BC
:101390007F491800029308F0AFFA002827D13900DE
:1013A0007C48FFF7CBFD00280CD00D236B43E318DE
:1013B0002E33FF331B78012B04D12F336B4382690B
:1013C000E318DA6139007448FFF7B8FD00280CD043
:1013D0000D236B43E3182F33FF331B78012B04D10C
:1013E0002F336B438269E3181A623F68C6E76B4983
:1013F000029808F081FA0028F7D139006548FFF714
:101400009DFD00280CD00D236B43E3183033FF33D0
:101410001B78012B04D12F336B438269E3185A6286
:1014200039005D48FFF78AFD0028DED00D236B43AD
:10143000E3183033FF331B78012BD6D12F336B43A6
:101440008269E3189A62D0E70D236B43E3182D33CA
:10145000FF331B78012B00D0F6E62F336B438269F4
:10146000E318D2B25A61EFE631004D48FFF766FD4E
:1014700030236B43E31800284CD082699A70310006
:101480004848FFF75BFD002846D03022C1698369D8
:101490006A430B43591E8B41A2185374002D1CD173
:1014A00031004148FFF74AFD1423002800D083692A
:1014B000636331003D48FFF741FD220038320028C8
:1014C00030D0C368591E8B41137031003848FFF784
:1014D00035FD002828D08369E363019B022B2AD1C4
:1014E000009E31003348FFF729FD00281FD0826994
:1014F000D3B2022B1BD13027551E6F43E21913764E
:1015000031002D48FFF71AFD002801D083693B55B3
:101510000123F9E59870B2E7302301226B43E31809
:101520005A74BBE71070D0E7FA231B01D4E7366882
:10153000002ED6D1ECE70027380007B0F0BD1F49D8
:10154000029808F0D9F9002800D040E6310011488F
:10155000FFF7F4FC002806D0A1235B00E35C012B1D
:1015600001D18369236631000B48FFF7E7FC0028AF
:1015700000D12AE64423FF33E35C012B00D024E6AC
:101580008369636621E6C0469F9B0010B89D0010EA
:101590000C9C0010A99B0010B19B0010119C001026
:1015A0003A9C0010429C0010C59B0010CD9B00107F
:1015B000D89B0010F69B00103F9C00104D9C001023
:1015C000F0B5554BBDB003AC63600E000B1DE3607E
:1015D000524B0C36236101236662514E0A00A6620B
:1015E000CE1826634F4E083266630E001036E6634F
:1015F0004D4EA26126640E001436A6644B4E4C4A32
:10160000E6640E00183666654A4E0025A6650E0093
:10161000E26102221C36039163612262E362636429
:101620002365A560A563E3652666434EA3666666EB
:101630000E002036E666414E626726670E002436AD
:10164000A6673F4E2392E6670E00283624963D4E4D
:10165000269325960E002C3627963B4E29932896E6
:101660008E182A96394E32922B96CE1C2D96384ED5
:101670002C952E960E0030363096364E2F9531969C
:101680000E003436339635920A0038323692324A9A
:10169000324E37923C31324A39910100314834960A
:1016A00038933A923B93FFF749FC0600A84219D0C1
:1016B0008368AB4216D00C236B43E718310078687F
:1016C0000193FFF73BFC002809D0C368042B06D127
:1016D000BB68012B12D0002B07D0022B13D0013591
:1016E000132DE8D100203DB0F0BD019BC169E25847
:1016F00083690B43591E8B411370F0E7019B82698C
:10170000E3581A60EBE7019B1749E2588369DB0154
:101710005B181360E3E7C046789C0010859C0010BE
:101720009D9C0010AA9C0010B49C0010BE9C001050
:10173000929C0010C69C0010CD9C0010DB9C0010F9
:10174000E59C0010F09C0010FC9C0010099D00100E
:10175000139D0010209D0010359D00102A9D001043
:10176000419D00104E9D001000003240F8B50E0063
:1017700001001648FFF7E2FB011E08D08368002B2A
:1017800005D01348FFF7DAFB0400002C01D100203C
:10179000F8BDA4680F4FA1683800FFF7CFFB3500F4
:1017A0000028F2D0C368042BEFD18369321D2B606F
:1017B000036824689B6921006B60D36F3800013394
:1017C000D367FFF7BBFB0835EAE7C046A39D0010CF
:1017D000F79D0010AF9D001070B50C000100164879
:1017E000FFF7ACFB051E24D001001448FFF7A6FB51
:1017F000002806D0E378012B03D10069FFF72AFB0C
:10180000207029000E48FFF799FB002806D02379A5
:10181000012B03D10069FFF73DFB607029000948E7
:10182000FFF78CFB002804D06379012B01D1836979
:10183000A370002070BDC0465E9C0010619C00102B
:101840006C9C0010749C001070B504000D0086B0F4
:101850000021142201A807F07EFF29002000FFF7D5
:101860006DFB0400002C18D021001C48FFF766FB1C
:101870000028F7D00569002D0AD0194E2900300044
:1018800008F03AF800280BD1310001A808F03EF822
:10189000210001A8FFF752FB0400200006B070BD34
:1018A000104E2900300008F027F80028ECD029005D
:1018B0000D4808F021F80028E6D00C4E2900300031
:1018C00008F01AF80028DFD02900094808F014F8B9
:1018D0000028DDD121000748C1E7C046B89D0010AF
:1018E000E09D0010C99D0010D09D0010D89D0010F3
:1018F000BD9D0010C39D001010B5FFF71FFB012414
:10190000002809D08168002906D00448FFF716FB9B
:10191000002801D0C468E4B2200010BD559D00101D
:10192000F7B5040000200D00FFF750F82000FFF786
:10193000B5F9071E4AD001002648FFF7FFFA041E3A
:1019400006D1012676423800FFF75AF83000FEBD76
:1019500001002148FFF778FF210006001E48FFF72D
:10196000CBFF0090002E2BD03069FFF773FA6B4647
:1019700000261B782870EB7021001848FFF764FFE1
:10198000210000901548FFF7B7FF009B0190002B46
:1019900019D01869FFF77EFA6B461B7968702B71B6
:1019A00021000F48FFF750FF210000900C48FFF77F
:1019B000A3FF009B002BC4D09B696871AB70C2E78A
:1019C00001267642D8E701267642E9E705267642E7
:1019D000BCE7C0465E9C0010619C00106C9C00102F
:1019E000749C0010F0B5050085B000200C00FEF7D7
:1019F000EDFF2800FFF752F90190002800D115E112
:101A000001008C48FFF79AFA051E00D10AE18A4FBF
:101A100001003800FFF718FF290006003800FFF723
:101A20006BFF002E00D1E1E09422B3695200DBB2DB
:101A30002370A0542200303213703623FF33E05459
:101A400000237E4F290038000093FFF7FDFE290098
:101A500006003800FFF750FF002E00D1C9E0F36800
:101A60005A1E93412A22DBB2FF326370A054220037
:101A7000313213709B235B00E054714F2900380012
:101A8000FFF7E2FE290006003800FFF735FF002EC1
:101A900000D1B2E0F3685A1E93412C22DBB2FF3230
:101AA0002374A0542200403213709C235B00E05446
:101AB000644F29003800FFF7C7FE290006003800F0
:101AC000FFF71AFF002E00D19BE09622B369520067
:101AD000DBB26361A05463643A23FF33E0545A4E8F
:101AE00029003000FFF7B0FE290007003000FFF7A3
:101AF00003FF002F00D188E02200BB692C32DBB24B
:101B000013703222FF32A05422005C3213709F22E5
:101B10005200A05422002D32137099225200A0547A
:101B200022005D3213704022FF32A05422002E3278
:101B300013703422FF32A05422005E321370A023AF
:101B40005B00E05401994148FFF7F8F90600002FC7
:101B500068D02E220123FF32A354D218A35430227E
:101B6000FF32A354D218A35423000222384FFE336D
:101B7000FF3201009A87DA873800FFF765FE3100EF
:101B800005003800FFF7B8FE0390002D41D0AB6987
:101B90000293304F31003800FFF756FE3100050048
:101BA0003800FFF7A9FE002D38D0AD6922002100D2
:101BB0002300533229317033FF32FF31029E5D60C2
:101BC0001E606E46367B08331670507002329942A2
:101BD000F4D1A12302225B00FF32E2520233E2522F
:101BE0000198FEF70DFF009805B0F0BD01235B42A0
:101BF00027E701235B4200933FE701235B42009309
:101C000056E701235B42009369E701235B4200939F
:101C100098E701235B4202950093BAE701235B42F8
:101C20000093C3E701235B420093D2E705235B42A5
:101C30000093D8E75D9D00103F9C00109B9D001015
:101C4000199C0010029C0010309C00109F9B0010FB
:101C5000A99B0010B19B0010DC23F0B59B0585B05B
:101C60000093002302AD019502901848184C0668B5
:101C70006B60306A0768002F07DBA34203D10120A5
:101C8000404205B0F0BD0133F4E7A342F7D06B4604
:101C9000C3600123BC3683603368C0180023066824
:101CA000002E03DAA342EAD00133F8E7A342E6D0DC
:101CB000A02300981B06984201D00098E1E7029B00
:101CC000002013606B680B60DBE7C046D40B020892
:101CD000983A00000122F0B50024184B06681968F4
:101CE00032400B6ABC310D6815495D191F68002F21
:101CF00006DB8C4202D101204042F0BD0134F5E701
:101D00008C42F8D0002A00D106000120DE609860E5
:101D100000202C68002C03DA8842ECD00130F8E770
:101D20008842E8D0DB68002A00D11B68A02200208E
:101D300012069342E1D01800DFE7C046D40B020838
:101D4000983A00000A4B37B51B780500013B002488
:101D5000012B05D8074B01A80193FFF7BBFF040037
:101D6000002D02D0280005F0F5F920003EBDC04648
:101D7000441102080101013A07B5034B01A8019380
:101D8000FFF7A8FF0EBDC0460101003210B5FFF7F6
:101D9000F3FF002801D107F0CBFE10BDF8B5060017
:101DA00008001700FFF7CEFF1D4B1B68002B20DA41
:101DB000B0241C4B1C4DA4002B511C4B1C481B6811
:101DC0001A009832196812688A181168084019496F
:101DD000014311601A00903212681B689B18102290
:101DE00019681142FCD0012005F0B4F92E51FFF71B
:101DF000CDFF002F0CD006F021F9C02201230E499F
:101E00005200885803438B5006F054F906F0FEF850
:101E1000300006F045FA002005F05EFDFBE7C04605
:101E2000000126400040001600002140D40B0208AB
:101E3000FCFF00000300FA0500002640C022012339
:101E4000044910B55200885803438B5006F032F90C
:101E500010BDC04600002640F8B5284B421E0500C4
:101E60009A4248D8264B1A78002A44D10124254F9B
:101E70001C703B78244E002B07D1FFF7DFFFE122D7
:101E8000D200B358A343B3503C70C02201210024B8
:101E90005200B3588B43B3501C4B1D801C4BA20007
:101EA00099184988A94221D8D35A9D4200D21D00D1
:101EB000184B20001C7006F0E5F8C22328005B00D8
:101EC000F65807F06BFA144A144B06F0E7FB06F0DD
:101ED00005FB11231C1B103BA3408019C01A80B2C4
:101EE00006F0BEF8FFF7AAFF0020F8BD01340D2C64
:101EF000D5D1013CDCE701204042F6E76F17000036
:101F0000FC060208FD06020800002640FA06020848
:101F1000249F0010F806020833DFC14F1C409F3F8A
:101F2000C0220120044952008B5883438B50002269
:101F3000024B1A707047C04600002640FC0602089B
:101F4000C0220120024952008B5883438B507047B6
:101F500000002640014B18607047C046D40B0208B1
:101F6000F8B58023FA270E0001251B0218430C4CFC
:101F70000004E061BF00236C2B4208D1002F01D187
:101F800008480CE02800013F05F0FEF8F3E7002FB9
:101F9000F6D00020236C1D432564E36A3380F8BD2E
:101FA00000003C400400160070B5FA26012500042C
:101FB0000B4C0143E161B600236C2B4208D1002E8B
:101FC00001D108480AE02800013E05F0DDF8F3E7FA
:101FD000002EF6D00020236C1D43256470BDC04642
:101FE00000003C400400160010230449044A8858AD
:101FF00003438B500022034B1A60704700003C40A3
:1020000070F00100C40B0208F0B51B4B9DB001A994
:102010000A00180070C870C270C870C270C870C260
:102020000AAC1A0020002432E0CAE0C0E0CAE0C0D6
:10203000E0CAE0C013AD2A004833C1CBC1C2C1CB56
:10204000C1C2C1CBC1C20D4E336898690130FF30A7
:1020500000F00EFB3368210098698130FF3000F0FA
:1020600007FB33682900986980239B00C01800F0A3
:10207000FFFA1DB0F0BDC04618A00010D40B020836
:10208000F0B589B002930EAB1B78039000910492D7
:102090000593012800D92DE1032900D92AE1029BEB
:1020A0000C3B872B00D925E1FB2A00D922E105F062
:1020B00075FF002801D005F0CFFA0122904B914F17
:1020C0001D00D859104204D08F495B58134200D0EC
:1020D00012E1FFF799FF8D4B8D4A0120EA50A023B2
:1020E000029A1B0313438B4AAB508B4B8B4AEA502B
:1020F0008B4B5B68034200D000E18A4BEB581B0717
:102100003ED52B68884A4003104303432B6005F0FB
:1021100039FD002843D0059B002B40D1032001212D
:1021200005F06AFD012005F097FDEE597F4B402038
:102130003343EB5105F028F801237D4C2A591A420C
:1021400008D12B51402005F01FF8032340202B51CC
:1021500005F01AF8774B784C1E4001963443FA2666
:10216000EC51F600754B1B689A69754BD3581022D9
:1021700013421FD1002E18D1724C200009B0F0BDBF
:1021800004F044FF7049884202D82B686F48BCE7CE
:1021900006F0CEF801382B680028F7D0B2E7032309
:1021A0006B4AA9580B43AB50BFE70120013E04F036
:1021B000EBFFD7E7002EDFD00823664A0120A9589D
:1021C0000B43AB5005F0D4F9002802D0059B012B3E
:1021D00002D1614C019B1C43604B614E23400124A2
:1021E0002343EB51484BEB58234200D0CCE0002E68
:1021F000C2D02000013E04F0C7FFF3E7013E0028F3
:1022000000D0D8E006ABDB88BB4200D0C2E006AB12
:10221000991D5448FFF7A4FE041E00D0CBE006AB86
:10222000DA888023DB001A421BD10A260193802121
:102230004C48C900FFF7B8FE041E00D01CE106ABF5
:102240009F1D39004748FFF78BFE0400002E00D188
:10225000B0E0013E002800D0ADE03B88019A9342F7
:10226000E5D106AB991D4048FFF77AFE041E00D069
:10227000A1E006ABDB883F22190091436A46128831
:102280000398019206AA0632012824D1009B022657
:102290002700012B03D8019BF61AB7B21E0070234A
:1022A0000B431380314B009A2F48D340304ABF0074
:1022B000136006ABD9883143D980FFF775FE019BC7
:1022C00004009E1B03231E403743BFB206ABDF80D2
:1022D000284BEF506FE00099002908D02700012615
:1022E0007F218B436F390B431380234BDBE701279F
:1022F000009EF5E7214C40E7214C3EE7214C3CE7AE
:1023000000003C40A0F00100B4F00100A4F0010086
:1023100006000001A8F00100ACF00100010001007E
:10232000FC003C4070F00100041A00803000030003
:10233000B0F00100EFFFFEFF20000200D40B020806
:10234000104000000400160000093D00040A00804F
:10235000C4F0010068F0010028000200FFFFFBFF4D
:10236000F07E0E00031E0000091E00000048E80178
:10237000C40B020864F001000024F4000100160000
:102380000300160002001600002E00D1F4E6C0275C
:102390000A267F01C0213A484901FFF705FE041EC5
:1023A0006AD106AB991D3648FFF7DAFD0400002E0E
:1023B00000D023E7334C04F099FF212844D0B02704
:1023C000314E7F05BB5B002B3ED0002C00D0D4E605
:1023D00006AB9D1D29002D48FFF7C2FD041E00D04D
:1023E000CBE6B95B288860344908A043214001430B
:1023F0002748BA5B0140F020D201C00002401143DF
:10240000244ABB5B1140C022DB0052011340194338
:102410001E482980FFF7C8FD041E00D0ADE6290044
:102420001D48FFF79DFD041E00D0A6E6FF23C02235
:10243000B95B19480909890119402B88934319434D
:102440002980FFF7B1FD0400002C00D095E6049B25
:1024500012495B00194389B21148FFF7A5FD041E1C
:1024600004D110491048FFF79FFD0400029B58015A
:1024700080B204F089FE80E6002E9BD09BE7C04628
:10248000021E00000400160016180000071E0000BF
:102490007FF5FFFFFFE7FFFF061E000001100000B1
:1024A000081E0000376800000F1E0000044B1B6868
:1024B0001A00BA3212881B6A5043C0187047C046CF
:1024C000D40B02081D4B98420FD010D840282FD0B3
:1024D00005D8002830D0102828D019481EE08028C0
:1024E00028D080235B009842F7D1144816E0154BA2
:1024F000984214D008D8A0231B0698421CD0124B37
:102500009842EAD1A0200BE0104B98420AD0104B21
:10251000984209D00F4B9842DFD10F487047A42052
:10252000C003FBE70D48F9E70D48F7E70D48F5E76D
:102530000D48F3E70D48F1E70020EFE706005200F1
:10254000FF005200010000F0090000A0040000F0AC
:10255000050000F0030000F00100520002005200EC
:10256000030052000100500002005000050052001C
:1025700010B50020FFF79AFF0A4B1C682300BC33FC
:102580001B68C0180368002B0ADB074B1868FFF7AD
:1025900099FF012263689A609A68002AFCD110BDF5
:1025A0000248FCE7D40B02080007020802005000B2
:1025B0000D4B10B51860002804D0FE235B42038049
:1025C00000234380094B1B681A0050321278002AFE
:1025D00008D051331B78002B04D00222044900207C
:1025E00000F08EF910BDC04610070208D40B020897
:1025F0003903020810B50248FFF7DAFF10BDC046E4
:102600000000000870B5C40506000D00E40D20D1DF
:1026100000291ED005F0E6FD0F4B104A1A605C60E1
:102620009E60DD600E4B1B685233197800290BD079
:1026300004F0F9FCFA21890005F07AFE010009484E
:1026400005F076FE084BC1188020400007F060FAC4
:1026500070BD0648FCE7C0460007020800010005FF
:10266000D40B0208C0EA21014826000006005200EF
:1026700030B5002830D000292ED0184BCD681A680C
:1026800093695469C31ADB091B011B1914008134B7
:102690002478241825601400823424780D692418C5
:1026A00025601400833424784D69241825601400B3
:1026B000803424788D68241825604C6884328461C5
:1026C00012788C6912181460CA691A600A6A5A6012
:1026D0000B680360002030BD0148FCE7D40B020802
:1026E00001005A000E4B10B51B689C695B69001B0A
:1026F000C0090001C0181F231A40032907D8C900C8
:102700008B408A4004689C432243026010BD043918
:10271000C9008B408A4044689C4322434260F5E7ED
:10272000D40B0208F8B51F0006AB15001A78060096
:102730000C00FFF7D7FF012211001740A140A7406E
:102740003368A4008B433B433360074B1B688133E2
:102750001B78F6180F2319001D40A140A5403268D0
:102760008A432A433260F8BDD40B0208064B1B682B
:10277000BC331B68C3181B68002B03DA89B24160A5
:10278000002070470148FCE7D40B020801008A00D2
:102790000368002B04DA89B2C260816000207047B0
:1027A0000048FCE701008A00064B1B68BC331B682D
:1027B000C3181B68002B03DAC36800200B60704746
:1027C0000148FCE7D40B020801008A00024B1A689A
:1027D000002A00D11860704714070208F0B52C24B5
:1027E0006043154C1F0024681D0A2018FF24254053
:1027F0002740124C1B0C26680760346A45608360D2
:10280000BA36368877433F1907612F0080376D014C
:102810007F01E71964190A4D47611F043B4364199E
:10282000236000238361059BC2610162002B01D0FC
:102830001B888381F0BDC04614070208D40B020830
:1028400008100000F0B5836885B002AD2B800368E6
:10285000066A1933AB704368476A0095826AC16A99
:10286000040003930369C068FFF7B8FF00213B0031
:102870000A0000913000FFF7B1FF216B280004F03F
:102880001FFC0022AB5E002B06DB1F2213401E3A0A
:102890009A401300014A136005B0F0BD00E100E06A
:1028A000F7B52C25134C684326686943341825690D
:1028B00001937118002D19D08869002818D12E684D
:1028C000002E15DA6768012426004B689E40B44646
:1028D00013689EB263461B041E431660EA608C6157
:1028E000BC40019BA4B24B62AC60FEBD0248FCE759
:1028F0000248FAE71407020804028A0007028A0065
:102900002C23434306480068C018C369934204D986
:10291000036A00209200D15070470248FCE7C0468D
:10292000140702080A028A0073B5002642690400EF
:10293000D56801962B0CB34221D01B041360136899
:10294000194B00691B68BC331B68C3181B68B34272
:1029500015DA01A9FFF728FFB0420CD10198E2690E
:1029600003681E0CDBB29A4205D9226A9B009B5871
:10297000002B00D0984731002069FFF7F7FEADB279
:10298000002D09D063691D6000251B68636AAB4296
:1029900005D098476562A56163691B6873BDA36A2A
:1029A000002BF8D09847F6E7D40B02082C2310B57B
:1029B0004343034A1068C018FFF7B6FF10BDC04676
:1029C00014070208F8B5194B0F001B681A003332C0
:1029D0001278824227D9002925D01F250A68154080
:1029E00021D11900BA310C88114E60431C6AD208FB
:1029F000041929007868346006F0ADFE2900200033
:102A0000FFF7B4FE3A0029003068FFF7C1FE041E4C
:102A100007D101003068FFF7A9FE03002000002B5A
:102A200000D00448F8BD0448FCE7C046D40B0208B7
:102A30001807020801018A0003018A0010B5002A64
:102A40000DD1002914D10B4B1A681300BA331B881F
:102A50005843136AC018084B1860080010BD0029BD
:102A600006D0064B196019005A60FFF7ABFFF5E777
:102A70000348F3E7D40B0208180702080400000813
:102A800003018A00F7B5184F04003B680191DE6826
:102A90003368834226D90025A94202D1FDF73DFDC6
:102AA000050038680368002B1ADA1F220123224030
:102AB000934064097268A4001419226813420DD06F
:102AC0009A43226000240021FFF750FE019B002B57
:102AD00002D12800FDF725FD2000FEBD034CF2E7E2
:102AE000034CF3E7034CF7E71807020802018800DC
:102AF0000301880004018A000A4B1B68DB681A681E
:102B000082420DD959681F23420918401E3B834059
:102B1000920050581840431E9841034BC01870470C
:102B20000248FCE7180702080001880004018A0037
:102B300070B59621002004F07BFB0021080003F013
:102B4000C1FA444244412E4B64421C402D4B0500C7
:102B50000020E41803F014FA012003F0EDF900203E
:102B600003F0C6F805F03EFB274E33683F331B7871
:102B7000002B03D0012003F09FFE0500002D00D0A4
:102B8000224C33683F331B78012B03D9022003F01A
:102B900093FE0500002D00D01D4C0021012003F004
:102BA000C7FC002800D01B4C002003F081FA051E52
:102BB0000ED103F0F3FC1223FF33984208D1012118
:102BC000280003F04DFA002800D00E4C05F00AFB57
:102BD00003F048FD002800D00F4C0021080003F04E
:102BE000A7FC002800D00D4C0021080003F038FAA3
:102BF000002800D0034CFFF7F7F9200070BDC04655
:102C0000F1F0E5FE0F0F1A01D40B02082F0F1A0185
:102C10002E0F1A014E0F1A013F0F1A014F0F1A0102
:102C20000D4AC0008318083010B58018002905D15E
:102C30000122524219605A6006C010BD074A803115
:102C4000126894695269091BC9090901891800228F
:102C500019605A600431EFE7D80B0208D40B020860
:102C600030B5134CC000031908300019002901D0F9
:102C7000072A06D901220021524219605A6006C073
:102C800030BD0C4C2468A5696469491BC909090158
:102C900009191960043101601F21032A03D8D200E9
:102CA00091405960ECE7043AD20091404160E7E777
:102CB000D80B0208D40B0208F0B5C400454E002919
:102CC00000D17AE0072A00D977E0002336199D0069
:102CD000DF004D190133F551152BF8D1143B93400A
:102CE0003D49736009194B603C49032509194B6044
:102CF0003B49384F09194B603A4909194B603A4929
:102D000009194B60394909194B60394909194B6058
:102D100038490C1951000E00374963600C68B54002
:102D20002100803109789200023189080918C90010
:102D3000C9194D600F252100954081310978023174
:102D400089080918C900C9194D6035001035AC460D
:102D500021006646032582310978B5400231890891
:102D60000918C900C9194B602100833109782B4328
:102D7000023189080918C900C9194B60FE230121D5
:102D80009B0084341A402378012502339B081818CD
:102D9000531CC0009940C71901200B00911C8840AA
:102DA0009540032603431D43D31C9E402E43072515
:102DB000053295402E437E60F0BD002301211800AE
:102DC00034194942E050E21808335160A82BF9D178
:102DD000F2E7C046D80B0208E00B0208E80B020835
:102DE000F00B0208F80B0208000C0208080C02089D
:102DF000100C0208180C0208D40B0208F0B50700EA
:102E0000008885B00138092800D968E105F086FA04
:102E100040000A0026004D00CD0017013A03500083
:102E20005C0098007D88B749E8000B185B68FA6879
:102E30001C0014400FD15E1C0DD09C2D0BD84158A6
:102E4000002908D0BD6808682B4303401A430A6074
:102E50007C6005B0F0BDAC4B7B60FAE77888A94B8D
:102E6000C200991849684C1CF5D09C28F3D8D0585A
:102E70000028F0D0BB6802680B4203D01C0054400D
:102E80002142E8D10A401343036000237B60E0E75E
:102E90007B889C2BDFD89B4ADB009B58002BDAD029
:102EA0001B68BB6000237B60D3E700237B60D0E717
:102EB000BB68022B05D1FB681E2B02D100237B606F
:102EC000C7E7924B7B60C4E7BB68002B00D146E2AA
:102ED000FA68052A00D942E200227A608C4A126818
:102EE0001178002924D091681960D1685960894906
:102EF0009960517800291DD0116AD960916A1961D1
:102F000085495961516A9961D16AD96183491962C8
:102F10009178002911D0116B5962916B99628049A7
:102F2000D962516BD26B19635A637E4A9A6390E7F8
:102F30001960DEE7D9609961EAE75962196388E7A9
:102F4000BB68002B00D184E7FA68052A00D980E726
:102F50006F4A1268117800291FD09168803119607A
:102F6000932199805178002919D0116A8031996094
:102F700095219981516A80311961972199829178BF
:102F800000290FD0116B526B8031803299611A6227
:102F900099219B2299839A8490E71960E2E79960CE
:102FA0001961ECE79961196288E7B968002900D1D5
:102FB000D5E15D4C5D4D2378F0220393002328007A
:102FC0007B6006F0BFFB04F0FBF8002811D0FFF790
:102FD000AFFD78607B68002B00D03AE728002370B3
:102FE00001F0E4FD7860002826D06B461B7B23703F
:102FF0002FE72378002BEDD1EB78002BE7D0EB798E
:10300000002BE4D02B0055331E7804F0C7F80028BD
:1030100002D0474B7B60DAE703F02CF9002806D199
:1030200003F014F9300003F04DF90023F2E703F048
:103030002BF90028F4D0ECE70123237009E77B8803
:10304000672B00D1AEE04DD8302B00D1D9E13CD870
:103050002D2B00D1E5E02F2B00D1CDE12C2B3ED143
:103060000024B1258026334BED001C80324BB60581
:103070001C80324B1B683F331B789C4200D91DE7F4
:10308000002C00D0A4E003F0DBFA00281BD02000C5
:1030900003F084FA022800D0B9E0294B9C46002CAA
:1030A00000D099E06146274B5A590A4032435A51A1
:1030B0000021200003F03CFA0123A3401D4A12889E
:1030C00013431C4A13800134D3E7322B00D18BE128
:1030D00000D284E1332B00D17CE1662B43D00A4B34
:1030E0007B60B6E66F2B00D108E12DD86D2B00D1A7
:1030F000F6E000D9F9E06C2BF1D104F04BFD002390
:103100007B60A6E6D80B0208FF0F1A01F90F1A011F
:10311000140802082000890035008B004A008D0049
:103120005F008F0074009100100802082007020859
:103130006F0F1A011C0702081E070208D40B0208B1
:10314000FFFFFFCF00002640712B00D114E100D219
:10315000DEE0C82B00D15AE1C92BC0D1FEF744FFF5
:1031600000237B6075E6BA68B84B002A10D15A6814
:10317000B74911401B220A435A605968B54A1143A6
:10318000596059681143596059680A435A6095E675
:10319000E8215868B04C89012040014359605A68C1
:1031A0002240F3E7AD4B1A681300BA33198807239E
:1031B0004B43126A9B181A68002AFCDA8022D968ED
:1031C00052050A43DA6000225A605B687A6040E682
:1031D000200003F05DFB58E703209C4AA300A049B0
:1031E0009B185A58120F024204D05A58120F02402C
:1031F000012A06D10120A0409A4A12881043994A18
:10320000108060465A58024032435A5050E7002C12
:1032100000D058E78D4A944953590B4033435351DA
:1032200051E7924B1B88002B0FD103F009FA0028BD
:1032300049D1002407E0013D03F07CF8022806D0C4
:10324000002DF8D18A4C7C6003E68A4DF4E7002D0E
:10325000F8D00026864C09E0013D03F0F9F900287A
:1032600001D001F0E2F8002DF6D101367B4B1B684E
:103270003F331B789E42E6D80123B3409BB20393B1
:103280007A4B039A1B881342EFD00221300003F0DF
:103290004FF9002EE1D0300003F004FB002801D0EC
:1032A00001F0D2F8002DE0D0013DF4E7C020800508
:1032B00001439950D9E7013C03F0CAF9002804D131
:1032C000002CF8D1BEE76B4CF6E7002CBAD0B12247
:1032D000C0235E49D20088589B0503438B50A8E762
:1032E00004F0AAFC00237B60B3E5B868431E984154
:1032F000C0B204F0B1FC00237B60AAE5BB6818787B
:1033000007282CD8597804F077FC00237B60A0E5CF
:10331000BA681378002B22D15168C8B20F281ED882
:1033200001248C405448127A84460430C66FB3425C
:103330000AD0D8006044056825421BD0022A11D06B
:10334000032A13D0002A07D0002300207B6004F05A
:10335000A5FB002803D17CE54368DB07F4D4474B89
:103360007B6076E543681342EED1F8E743685B077C
:10337000EAD4F4E70133DAE7BA681378002BEED128
:1033800004250126117A3C4A101DC46FA34207D1BF
:1033900000207860002800D05BE504F0B9FBD8E796
:1033A00002290AD003290FD000290BD1D800101808
:1033B0004068304206D13148EBE7D8001018406829
:1033C0000842F8D00133E1E7D800101840682842DD
:1033D000F8D1F0E703F0C0FC00237B6039E503F08F
:1033E000F5FC00237B6034E5BB681A8918885968AE
:1033F00003F0C8FB78602CE5B86803F079FC7860CE
:1034000027E5B86802F014FF00237B6021E51C4C1F
:10341000BD68230021006A68DC331A60AB68E031C4
:103420000B60210026002878E43108606978E836CE
:10343000316026002D7BEC36356001260234E677BC
:103440000095FEF71DFE786003E5C04600002640AB
:103450000000FC0F003A0280FF00FC0FD40B0208B2
:10346000FC0500001E070208FFFFFFCF1C07020833
:10347000FA0F1A0140420F00C0100208FE0F1A0195
:1034800020070208B44B1B78002B01D100F0C9FFC4
:1034900078880838632800D921E604F035FFDF007A
:1034A000F20009013501490165017C01900120FE0E
:1034B000A401B801CC01EC013B028A025F031604AF
:1034C000330450046D048904A504B904CD04FF0439
:1034D0001B052F054305600574058805AD06D80654
:1034E0000B0740079C0720FE20FEB90720FE20FEA8
:1034F00020FE20FE20FE20FE20FE20FE20FE20FEDC
:1035000020FE20FE20FE20FE20FE20FE20FE20FECB
:1035100020FE20FE20FE20FE20FE20FE20FE20FEBB
:1035200020FE20FE20FE20FE20FE20FE20FE20FEAB
:1035300020FE20FE20FE20FE20FE20FE20FE20FE9B
:1035400020FE20FE20FE20FE20FE20FE20FE20FE8B
:1035500020FE20FE20FE20FE20FE20FE20FE640035
:103560008700AA00C40001227C4C2379657803936C
:10357000BB68E11CDBB2267862702270CB77002B2F
:1035800011D12271FB68FF2B00D197E4200001F0DC
:103590000DFB7860002800D15BE46B461B7B267036
:1035A0006570237155E400232371EBE701210022AC
:1035B0006A4C237965780393BB68201DDBB22678BB
:1035C00062702170C377022B11D12171FB68FF2B30
:1035D00000D173E4200001F0E9FA7860002800D1FE
:1035E00037E46B461B7B26706570237131E42271D2
:1035F000ECE75A4C2378651D03930123EE7F23707B
:10360000EB77FB68FF2B00D158E4200001F0CEFAE5
:103610007860002801D1FFF71CFC6B461B7BEE771E
:103620002370FFF716FC4D4C651DEB7F2678039346
:10363000012323700023EB77FB68FF2B00D13DE4CF
:10364000200001F0B3FA7860002801D1FFF701FCF7
:103650006B461B7B2670EB77FFF7FBFB00233F4C91
:1036600065796371FB68FF2B00D127E4200001F02E
:103670009DFA7860002801D1FFF7EBFB6571FFF739
:10368000E8FB0023354CA56E667AA3666372FB687F
:10369000FF2B01D1FFF712FC200001F087FA7860C0
:1036A000002801D1FFF7D5FB6672A566FFF7D1FBB5
:1036B000BB68002B24D02A4A12683F32127893420A
:1036C0001ED80022254C012B14D1A57AA272FB68CA
:1036D000FF2B01D1FFF7F2FB200001F067FA7860C1
:1036E000002801D1FFF7B5FBBB68012B05D1A572FE
:1036F000FFF7AFFBE57AE272E9E7E572FFF7A9FBB6
:10370000184B7B60FFF7A5FB0123144CE579E371AF
:10371000FB68FF2B01D1FFF7D1FB200001F046FA37
:103720007860002801D1FFF794FBE571FFF791FB6A
:1037300000230A4CE579E371FB68FF2B01D1FFF709
:10374000BDFB200001F032FA7860002801D1FFF7BC
:1037500080FBE571FFF77DFB1008020820070208D7
:10376000D40B0208BD0F1A01CF48BB6804005A1ED3
:103770009341553425782370FB68FF2B01D1FFF767
:103780009DFB01F013FA7860002801D1FFF761FB7F
:103790002570FFF75EFB0123C348441CE57FE377F8
:1037A000FB68FF2B01D1FFF789FB01F0FFF978607F
:1037B000002801D1FFF74DFBE577FFF74AFB002317
:1037C000B948441CE57FE377FB68FF2B01D1FFF785
:1037D00075FB01F0EBF97860002801D1FFF739FBA8
:1037E000E577FFF736FB0123AF4C257A2372FB68A0
:1037F000FF2B01D1FFF762FB200001F0D7F97860C1
:10380000002801D1FFF725FB2572FFF722FB0023DB
:10381000A54C257A2372FB68FF2B01D1FFF74EFBE5
:10382000200001F0C3F97860002801D1FFF711FBF7
:103830002572FFF70EFBBB689B48DBB20400013B1F
:103840005A42534156342578237000237B60FB682D
:10385000FF2B01D1FFF7FDFA037A002B01D1FFF70F
:10386000F8FA01F0A3F97860002801D1FFF7F1FA26
:103870002570FFF7EEFA0024B8687C60052834D87C
:10388000894B012204F036FD032225282B2E5C7D76
:103890005A757B68002B01D0FFF7DBFAFB68FF2B22
:1038A00001D1FFF7D6FA804D280001F07FF978604A
:1038B000002801D1FFF7CDFAB868052801D9FFF734
:1038C000C8FA04F017FD15181B1E21249C7D9A755B
:1038D000DFE7DC7DDA75DCE71C7E1A76D9E75C7EF3
:1038E0005A76D6E79C7E9A76D3E7704B7B60D0E71A
:1038F0006C75FFF7AEFAAC75FFF7ABFAEC75FFF736
:10390000A8FA2C76FFF7A5FA6C76FFF7A2FAAC7648
:10391000FFF79FFA0024B8687C60052834D822009D
:10392000614B04F0E7FC032225282B2E5C7D5A75A1
:103930007B68002B01D0FFF78CFAFB68FF2B01D1CD
:10394000FFF787FA584D280001F030F97860002819
:1039500001D1FFF77EFAB868052801D9FFF779FA97
:1039600004F0C8FC15181B1E21249C7D9A75DFE706
:10397000DC7DDA75DCE71C7E1A76D9E75C7E5A7648
:10398000D6E79C7E9A76D3E7484B7B60D0E76C7590
:10399000FFF75FFAAC75FFF75CFAEC75FFF759FAC1
:1039A0002C76FFF756FA6C76FFF753FAAC76FFF7F2
:1039B00050FA0022BB687A601868052800D9A5E093
:1039C000394C1B79220004F095FC03394B5D7D8F47
:1039D000A53216781370364A18001568627DA63431
:1039E000039203F0E3FA23783249D84004F0A0FCB4
:1039F0002F4B18607B68002B01D0FFF72AFA039B3E
:103A0000002B01D1FFF725FAFB68FF2B01D1FFF74F
:103A100020FA254C200001F0C9F87860002801D177
:103A2000FFF717FABB681868052801D9FFF711FAE4
:103A3000230004F05FFC6F757B81878DAC321678B4
:103A400013701D4A18001568A27DAD34039203F06F
:103A5000ADFA23781749D84004F06AFC164BC8E742
:103A6000B43216781370154A18001568E27DB53423
:103A7000039203F09BFA23780E49D84004F058FCD7
:103A80000E4BB6E7BC32167813700D4A1800156855
:103A9000227EBD34039203F089FA23780549D84089
:103AA00004F046FC064BA4E720070208FF0F1A01AA
:103AB000C807020840420F00D0070208D8070208D2
:103AC000E0070208C43216781370E94A1800156836
:103AD000627EC534039203F069FA2378E549D84041
:103AE00004F026FCE24B84E7CC3216781370E24AED
:103AF00018001568A27ECD34039203F057FA23789C
:103B0000DC49D84004F014FCDB4B72E7DB4B03923A
:103B10007B606FE7A533A8341E702560FFF799F925
:103B2000AC33B0341E702560FFF793F9B433B8346A
:103B30001E702560FFF78DF9BC33C0341E70256000
:103B4000FFF787F9C433C8341E702560FFF781F989
:103B5000CC33D0341E702560FFF77BF90025BA689E
:103B60007D601068052800D982E0C54B127904F009
:103B7000C1FB0339475563711E00C249A8360C7852
:103B80000A70326803925D7DA533187803F00EFA4F
:103B9000BC4B1B78B749D84004F0CAFB30607B6847
:103BA000002B01D0FFF755F9002D01D1FFF751F996
:103BB000FB68FF2B01D1FFF74CF9B14D280000F055
:103BC000F5FF7860002801D1FFF743F9BB6818685A
:103BD000052801D9FFF73DF92B0004F08BFB4C536E
:103BE0005A61686F1E00A849B0360C780A703268B6
:103BF00003929D7DAC33187803F0D8F9A24BC8E747
:103C00001E00A249B8360C780A7032680392DD7D36
:103C1000B433187803F0CAF99C4BBAE71E009C49EC
:103C2000C0360C780A70326803921D7EBC33187857
:103C300003F0BCF9964BACE71E009649C8360C78E9
:103C40000A70326803925D7EC433187803F0AEF9CF
:103C5000904B9EE71E009049D0360C780A7032686F
:103C600003929D7ECC33187803F0A0F98A4B90E73D
:103C7000824B7B6093E7A6331C70039BA8352B60B7
:103C8000FFF7E7F8AD331C70039BB0352B60FFF7EF
:103C9000E0F8B5331C70039BB8352B60FFF7D9F8FB
:103CA000BD331C70039BC0352B60FFF7D2F8C533C2
:103CB0001C70039BC8352B60FFF7CBF8CD331C700D
:103CC000039BD0352B60FFF7C4F86D4C2500A2355F
:103CD0002B78A67C03930123A374BB682B70FB682D
:103CE000FF2B01D1FFF7EAF8200000F05FFF7860BA
:103CF000002801D1FFF7ADF86B461B7BA6742B7033
:103D0000FFF7A7F85E4C2500A3352B78039301231A
:103D1000E67CE374BB682B70FB68FF2B01D1FFF7D7
:103D2000CDF8200000F042FF7860002801D1FFF7B5
:103D300090F86B461B7BE6742B70FFF78AF8504CAB
:103D40002500D6352B78267F039301232377BB6884
:103D50002B70FB68FF2B01D1FFF7B0F8200000F0BB
:103D600025FF7860002801D1FFF773F86B461B7BB5
:103D700026772B70FFF76DF84148BB680400D834F4
:103D80002588238000237B60837F002B01D1FFF7F0
:103D900060F8FB68FF2B01D1FFF75BF800F006FF2E
:103DA0007860002801D1FFF754F82580FFF751F81B
:103DB0003348BB680400DA342578237000237B6025
:103DC000837F002B01D1FFF744F8FB68FF2B01D163
:103DD000FFF73FF800F0EAFE7860002801D1FFF716
:103DE00038F82570FFF735F80123254CA57FA37718
:103DF000FB68FF2B01D1FFF761F8200000F0D6FE31
:103E00007860002801D1FFF724F8A577FFF721F8A3
:103E100000231B4CA57FA377FB68FF2B01D1FFF785
:103E20004DF8200000F0C2FE7860002801D1FFF7B5
:103E300010F8A577FFF70DF81148BB680400D434DB
:103E40002578237000237B60C37E002B01D1FFF710
:103E500000F8FB68FF2B01D1FEF7FBFF00F0A6FE88
:103E60007860002801D1FEF7F4FF2570FEF7F1FF1E
:103E7000E807020840420F00F0070208FF0F1A018E
:103E800020070208C6070208CD070208D507020866
:103E9000DD070208E5070208ED070208D248BB6803
:103EA0000400D5342578237000237B60C37E002B6B
:103EB00001D1FEF7CEFFFB68FF2B01D1FEF7C9FF52
:103EC00000F074FE7860002801D1FEF7C2FF257073
:103ED000FEF7BFFF0123C44CE57EE376FB68FF2BB2
:103EE00001D1FEF7EBFF200000F060FE78600028B3
:103EF00001D1FEF7AEFFE576FEF7ABFF0023BA4C2B
:103F0000E57EE376FB68FF2B01D1FEF7D7FF2000AB
:103F100000F04CFE7860002801D1FEF79AFFE576AC
:103F2000FEF797FFB04C2500D7352B78667F0393BB
:103F300001236377BB682B70FB68FF2B01D1FEF771
:103F4000BDFF200000F032FE7860002801D1FEF7AE
:103F500080FF6B461B7B66772B70FEF77AFFA24BC8
:103F60005979002903D0A14B7B60FEF772FFBA6834
:103F7000106898625068D8629068D26818635A6373
:103F80007960FEF766FF0123974C65796371FB68E2
:103F9000FF2B01D1FEF792FF200000F007FE7860B2
:103FA000002801D1FEF755FF6571FEF752FF00258D
:103FB000BA687D60106805284CD88B4B04F09AF9DC
:103FC00003272E353C431900012096311E7B0D88B6
:103FD000187393880B807B68002B01D0FEF739FFA4
:103FE000FB68FF2B01D1FEF734FF7F4C200000F06F
:103FF000DDFDBB68786000284ED01868052801D91F
:10400000FFF76DF804F076F92A2F34393E43190092
:10401000012098315E7B0D885873DAE71900012082
:104020009A319E7B0D889873D3E7190001209C314B
:10403000DE7B0D88D873CCE7190001209E311E7CF1
:104040000D881874C5E719000120A0315E7C0D8829
:104050005874BEE7664B2E007B60BCE7267396342F
:104060002580FEF7F6FE667398342580FEF7F1FE94
:10407000A6739A342580FEF7ECFEE6739C34258007
:10408000FEF7E7FE26749E342580FEF7E2FE667496
:10409000A0342580FEF7DDFE1868052801D9FEF75B
:1040A000D8FE04F027F903203F5F758B637A002B5D
:1040B00003D0200000F0C6FCA0662300A5331878CA
:1040C000002801D0FEF7C5FE02F070FF2300A633E2
:1040D0001B784849A83499404B08181804F028F96F
:1040E0002060FEF7B6FEA37A002B05D02100012048
:1040F00000F0C6FC231DD8672300A53318780128DB
:1041000001D0FEF7A6FE02F051FF2300A6331B7874
:104110003849A83499404B08181804F009F9206070
:10412000FEF797FEE37A002B06D02100022000F074
:10413000A7FC23008C3318602300A53318780228CD
:1041400001D0FEF786FE02F031FF2300A6331B7874
:104150002849A83499404B08181804F0E9F8206061
:10416000FEF777FE2300A5331878032801D0FEF769
:1041700070FE02F01BFF2300A6331B781D49A834F4
:1041800099404B08181804F0D3F82060FEF761FE40
:104190002300A5331878042801D0FEF75AFE02F058
:1041A00005FF2300A6331B781249A83499404B0819
:1041B000181804F0BDF82060FEF74BFE2300A5336D
:1041C0001878052801D0FEF744FE02F0EFFE230028
:1041D000A6331B780749A83499404B08181804F0F7
:1041E000A7F82060FEF735FE20070208590F1A01D4
:1041F000FF0F1A0140420F00BA689E4B1168D96642
:104200001900908870310880190090797231087017
:104210001900D07973310870190010897431088041
:104220001900907A763108701900D07A77310870C9
:1042300019009089783108801900907B7A310870D4
:10424000128A7C331A8000237B60FEF702FE894CC1
:10425000657A002D03D0884B7B60FEF7FAFD0123C1
:104260002000637200F0EEFBFB68A066FF2B01D11B
:10427000FEF724FE200000F099FC7860002803D0AF
:10428000A5666572FEF7E5FD2300A53318780028C2
:1042900001D0FEF7DEFD02F089FE2300A6331B7875
:1042A0007649A83499404B08181804F041F820606A
:1042B000FEF7CFFDB9680A68002A05D0704B1B686D
:1042C0003F331B789A4203D96E4B7B60FEF7C1FDEA
:1042D0004B681E785D789C78D8781979654B012AEF
:1042E0000FD11A00843216701A00853215701A0028
:1042F000863214701A008732107088331970FEF7F6
:10430000DDFD1A00903216701A00913215701A00F5
:10431000923214701A00933210709433EEE7BD6835
:10432000012D0FD1534B9B7A002B07D1544B1B68A7
:104330003F331B789D4201D8002D08D1524B7B6042
:10434000FEF787FD022DF1D14A4BDB7AECE7494CB1
:104350002100012D19D1280000F092FB231DD86700
:10436000A572FB68FF2B01D1FEF7A8FD200000F02D
:104370001DFC7860002817D0BA680023012A0DD1EF
:10438000221DD367A372FEF764FD022000F078FBC4
:1043900023008C3318600123E372E2E722008C32A1
:1043A0001360E372FEF755FD2300A5331878431E12
:1043B000012B01D9FEF74DFD02F0F8FD2300A633D5
:1043C0001B782E49A83499404B08181803F0B0FF09
:1043D0002060FEF73EFD274C2500A4352B78267D76
:1043E000039301232375BB682B70FB68FF2B01D15E
:1043F000FEF764FD200000F0D9FB7860002801D1B1
:10440000FEF727FD6B461B7B26752B70FEF721FD03
:104410000122184B9A71BA689A6400237B60FEF7F8
:1044200018FD1A4B7B60FEF714FD002D01D1FEF73D
:104430001CFFB122C0201649D2008B5880050343CF
:104440008B500024FEF711FF002D01D1FEF70DFF68
:10445000104B0F491C88039B0F4A1C40B3005B188C
:104460009958002C01D1FEF721FF0C4801409950CA
:10447000E7E7C046200702083E0F1A0140420F003E
:10448000D40B0208BD0F1A012D0F1A01FF0F1A01DC
:10449000000026401E070208FC050000FFFFFFCFBA
:1044A000F0B5154D87B02A6802AC1300BA331B88EB
:1044B000126A9B009B18DB6827001E0001930ECE3A
:1044C0000EC7336820003B60FEF798FC019B07CCC9
:1044D00007C3852180203B68490133602B68400376
:1044E0001A6ABA3350501888515880008018002139
:1044F000FEF73CF907B0F0BDD40B020837B59D229A
:104500000020384BD100384C591A0919013A08607B
:10451000002AF7D135491960354999603549196143
:1045200035499961354919623549996235491963A7
:10453000354999633549196435490968080040309F
:104540000078042800D9334A9A640022052800D94B
:10455000314A1A654A6801241000083098652F48CE
:10456000644218662E48DC6758662E488025986697
:104570002D482D0218672D4812189A6780230A6962
:10458000DB012B48D31852198025ED0003605B191D
:10459000446008309A42F7D100228520254B400123
:1045A0000433DA670B6A1B188020400398600423E9
:1045B000684603800B8F204905338370019202F017
:1045C0007FFD002800D001BE6B4600229B5E002BC1
:1045D00006DB1F2213401E3A9A401300174A13604D
:1045E00037BDC046D80B0208EC0400000800264086
:1045F00000072640040726400807264010072640EB
:1046000084032640880326408C03264090032640DE
:10461000D40B020894032640980326400400264049
:1046200000FF03F0480526404405264060F00000E6
:10463000580C0208C0100208A144001000E100E07C
:1046400010B5314C2368002B5CD01A78002A0FD0AB
:10465000DA6899682020FEF72FFB23688920996883
:10466000DA68FEF7FDFA236893209968FEF7D8FA16
:1046700023685A78002A20D09A6A196A3520FEF7F2
:104680001BFB23684A20DA6A596AFEF715FB236888
:104690008B209A6A196AFEF7E3FA23688D20DA6A9A
:1046A000596AFEF7DDFA23689520196AFEF7B8FA11
:1046B00023689720596AFEF7B3FA23689A78002A8C
:1046C00020D09A6B196B5F20FEF7F6FA23687420EE
:1046D000DA6B596BFEF7F0FA23688F209A6B196B2F
:1046E000FEF7BEFA23689120DA6B596BFEF7B8FA31
:1046F00023689920196BFEF793FA23689B20596B66
:10470000FEF78EFA10BDC04614080208032818D020
:1047100004D8012813D02ED9886A0FE01223FF3362
:10472000984218D01423FF33984217D01138FF381D
:1047300043425841114B4042184002387047886C40
:10474000FCE7E43108680138434258410C4B4042D1
:104750001840C018F2E780200002EFE7094B1B6801
:10476000413318780138431E9841074B40421840A6
:1047700080231B02EDE70548E0E7C046027D00000C
:104780000024F400D40B0208FE7FFFFF00127A0021
:1047900002235B4210B51360314B14001B681A00F2
:1047A0003E321278824258D9052856D803F0A2FD2D
:1047B00003192E43494F0B7B002B4ED04B7A002B15
:1047C00008D00B007A331B78022B03D08B6E23604A
:1047D000002010BD0B0096331888FFF797FF20606C
:1047E000F6E74A7B002A38D03F331B78002B0AD0EB
:1047F0008B7A002B07D00B0088331B78022B02D05A
:104800000431CB6FE3E70B009833E5E78A7B002A9E
:1048100023D03F331B78012B0AD9CB7A002B07D04A
:104820000B0094331B78022B02D08C310B68CEE73F
:104830000B009A33D0E7CB7B002B0ED00B009C33C0
:10484000CAE70B7C002B08D00B009E33C4E74B7CDF
:10485000002B02D00B00A033BEE70248B9E7C046E8
:10486000D40B0208FE0F1A01194B00B51360002388
:10487000052809D803F03EFD030A13191F2500235C
:10488000087B9631984206D1180000BD0023487B72
:1048900098319842F8D00B8800211160F4E700238A
:1048A000887B9A319842F6D1EEE70023C87B9C3191
:1048B0009842F0D1E8E70023087C9E319842EAD183
:1048C000E2E70023487C9842DED0A031E3E7C0460F
:1048D000FE0F1A01032819D004D801280FD028D9B7
:1048E00048790DE01223FF33984214D01423FF338C
:1048F000984212D0033B98420BD00F4805E08879CC
:10490000434258410C4B4042184070470231C87F27
:10491000F6E7C879F4E7087AF2E70131CB7F002B9C
:10492000EBD0064B1B68413318780138431E984181
:10493000E8E70020E9E7C046FE0F1A01D40B0208A1
:1049400010B51B4B1B683E331B7883422DD90528BD
:104950002BD803F0CFFC030C12181E240B7B002B6A
:1049600023D00B0096331888FFF7B4FF10BD4B7BA4
:10497000002B1AD00B009833F5E78B7B002B14D05B
:104980000B009A33EFE7CB7B002B0ED00B009C3350
:10499000E9E70B7C002B08D00B009E33E3E74B7C50
:1049A000002B02D00B00A033DDE70248DEE7C04653
:1049B000D40B0208FE0F1A010300A8331B6810B5C0
:1049C0000400002B02D00848584310BD0300A53353
:1049D000187802F0EBFA02000120A6342378984000
:1049E00040088018D840F0E740420F0010B504009E
:1049F00001F092FF002801D0044810BD04492000B6
:104A000002F00EF80028F8D0F6E7C046FD0F1A01B4
:104A10001027000070B50400150001F021FB0028EC
:104A200001D0074870BD2900200001F04BFB002891
:104A3000F7D1200001F0BEFA0028F3D0F1E7C0461C
:104A4000FD0F1A01030010B50400963318882100E9
:104A5000FFF75CFE030000209A1C0FD0220070328A
:104A6000118881420AD0E06E7334584303F060FC31
:104A700021784B1E9941013103F05AFC10BD000012
:104A800070B500250C00A84221D01B4B1B683F339A
:104A90001B7883421BD301281BD10B009833188845
:104AA000FFF734FE23002200843385321B7811780F
:104AB00086342578821C1BD000291BD0002D06D0FF
:104AC000584303F035FC290003F032FC05002800B0
:104AD00070BD0228FBD10B009A331888FFF716FE31
:104AE00023002200903391321B7811789234E0E752
:104AF0000025ECE70D00EAE7D40B0208F8B5040046
:104B00000F00012932D10300817A427B04309833AF
:104B1000C66F83301B8805780020814225D08242F1
:104B200031D018002100FFF7F1FD184BC018184BC9
:104B3000984228D86B1E9D41164B6D421D40164B66
:104B4000ED182379002B1AD0AE421CD3134B9E4292
:104B500019D821003800FFF793FF301A4642704100
:104B60000F4E40420F4B3040C018F8BD0300C17AD1
:104B7000827B9A338C301B880668C579CCE7AE42BD
:104B800001D3094BE3E70748EFE7C04600F7C2FF50
:104B900000879303C863E3FF20BCBE0080F0FA02E5
:104BA00002F0E5FEFE0F1A0180D1F008F0B5040016
:104BB0008BB0002801D101F030F80700404EA53736
:104BC000336838783E331B78984207D300203D4B3A
:104BD0000593059D002D06D03B4D6EE005AA2100F2
:104BE000FFF742FEF5E7022820D01223FF33984258
:104BF00045D0012800D071E0344B1B68002B13D046
:104C00001A78002A10D05A68A16C8A420CD19A688E
:104C1000E16C8A4208D1DB68226D934204D1230003
:104C200054331B78102B59D0294D46E0274B1B6875
:104C3000002B22D05A78002A1FD01A69A16A8A4212
:104C40001BD15A69E16A8A4217D19A69216B8A425B
:104C500013D1DA69616B8A420FD11A6AA16B8A4259
:104C60000BD15A6AE16B8A4207D19A6A216C8A4257
:104C700003D1DB6A626C934230D0164D1DE0134BBA
:104C80001B68002B18D09A78002A15D022005632C3
:104C9000D978127891420FD11A6BA16D8A420BD14B
:104CA0005A6BE16D8A4207D19A6B216E8A4203D119
:104CB000DB6B626E934211D0074D28000BB0F0BD44
:104CC000D40B0208FE0F1A019F0F1A0114080208E4
:104CD000570F1A01580F1A01560F1A0101F02AFB3B
:104CE00002281DD06379002B1AD0D94AA36A9B18D9
:104CF000D84A934201D900F093FFE36A013B632B4A
:104D000001D900F08DFF236BD34A013B934201D9B7
:104D100000F086FF636B013B934201D900F080FFF6
:104D2000A379002B0ED02279A36C002A00D148E28F
:104D3000CA4A934201D900F076FFE36C002B01D1FF
:104D400000F071FFA31CDB7F002B1FD02300E43396
:104D50001B68012B01D900F069FF2300E0331B68B9
:104D6000BF4A5B01913BFF3B934201D900F05EFFDC
:104D70002300DC331B68FB2B01D900F057FF230015
:104D8000E8331B68032B01D900F050FF237B002B75
:104D90000ED033683E331B78002B09D023009633A6
:104DA00018882100FFF796FD002801D000F041FF90
:104DB000637B002B0ED033683E331B78012B09D95F
:104DC0002300983318882100FFF784FD002801D0C4
:104DD00000F032FFA37B002B0ED033683E331B78EC
:104DE000022B09D923009A3318882100FFF772FD9E
:104DF000002801D000F023FFE37B002B0ED03368A6
:104E00003E331B78032B09D923009C3318882100DB
:104E1000FFF760FD002801D000F014FF237C002B79
:104E20000ED033683E331B78042B09D923009E3300
:104E300018882100FFF74EFD002801D000F005FF83
:104E4000637C002B0ED033683E331B78052B09D9C9
:104E50002300A03318882100FFF73CFD002801D073
:104E600000F0F6FE01F0ECFB00285DD1637A002B28
:104E70005AD0237B002B01D100F0EDFE23009633A6
:104E800018882100FFF742FC764BC018764B9842F9
:104E900001D900F0E0FE754AA36E9B182279002A22
:104EA00000D190E1724A934201D900F0D4FEE36E42
:104EB000704A013B934201D900F0CDFE23007033CC
:104EC0001B886D4A013B9BB2934201D900F0C3FE9F
:104ED000230072331B78042B01D900F0BCFE2300A1
:104EE0007433664A1B88934201D900F0B4FE230054
:104EF00076331B780F2B01D900F0ADFE23007733FA
:104F00001B780F2B01D900F0A6FE230078335C49F3
:104F10001B888B4201D900F09EFE23007C331B8846
:104F2000934201D900F097FE33683F331B78002B82
:104F300013D0A37A002B10D0012001F0A9FC002887
:104F40000BD133683F331B78002B05D001212000A3
:104F5000FFF7D4FD002800D04A4D33683F331B785B
:104F6000012B00D83FE1E37A002B00D13BE1002D7B
:104F700000D0A2E6022001F08BFC002800D124E141
:104F8000237F002B00D032E1637D002B00D123E68C
:104F90003368029340331B78002B00D11CE63D7828
:104FA00021002800FFF7CCFC002800D014E6029B6B
:104FB0003E331B789D4200D236E1334B0493049B71
:104FC000002B00D008E605AA38782100FFF7E0FBA7
:104FD0002E4B059A050004909A4200D8FCE5002863
:104FE00000D0F9E52300A8331B68002B00D1F3E5BE
:104FF0002200A6321178264A264F53430292BB4222
:1050000000D9E9E5032900D9E6E5A37D002B43D0CB
:10501000336840331B78012B3ED92300AC3318781A
:105020002100FFF78DFC002801D000F0EAFC2300EE
:10503000AD331A7803331B6802994B43BB4201D945
:1050400000F0DFFC032A01D900F0DBFC24E0C046BD
:1050500000DC0BFFC0EA2101E703000080F0FA0248
:10506000D010000018FCFFFF18DDF50500CA91FE06
:1050700080BA8C01FEFF0300FE1F0000FF0100004C
:10508000FF1F0000BF0F1A01FE0F1A013F0D0300A2
:1050900040420F0080D1F008E37D002B1DD0336823
:1050A00040331B78022B18D92300B4331878210021
:1050B000FFF746FC002801D000F0CEFC2300B533FA
:1050C0001A7803331B6802994B43BB4201D900F0A5
:1050D000C3FC032A01D900F0BFFC237E002B1DD0A6
:1050E000336840331B78032B18D92300BC3318785E
:1050F0002100FFF725FC002801D000F0A5FC2300CB
:10510000BD331A7803331B6802994B43BB4201D964
:1051100000F09AFC032A01D900F096FC637E002B74
:105120001DD0336840331B78042B18D92300C433B7
:1051300018782100FFF704FC002801D000F0A1FC42
:105140002300C5331A7803331B6802994B43BB42D3
:1051500001D900F096FC032A01D900F092FCA37E4D
:10516000002B1ED0B14B1B6840331B78052B18D980
:105170002300CC3318782100FFF7E2FB002801D090
:1051800000F0C0FC2300CD331A7803331B6802996A
:105190005943B94201D900F0B5FC032A01D900F006
:1051A000B1FCE37E002B52D1637F002B6FD1A37C37
:1051B000002B00D091E0E37C002B00D0A0E09C4DC0
:1051C0007BE59C4AB5E59C4A6DE633683F331B7826
:1051D000012B06D902212000FFF790FC002800D106
:1051E000CEE6964D69E5002D00D1C9E665E52300C0
:1051F000D6331B78012B0AD0002B03D0032B08D009
:105200008F4D5AE5E379002B00D0BDE6F8E7237A0D
:10521000F9E7631CDB7F002BF2D0336841331B7846
:10522000012B00D1B0E6EBE704AA21002800FFF72C
:105230001BFB88235B00984200D1CDE41423FF338D
:10524000984200D1C8E4032800D0B8E6C4E42300A3
:10525000D4331E7821003000FFF772FB002814D1F0
:105260002300D53302931B78042B0ED805AA210006
:105270003000FFF78DFA002807D1029B059A1B78B2
:10528000DA4013006F4A93428ED96F4D15E5230023
:10529000D7331B78002B03D0012B05D06B4D0CE5C9
:1052A000237A002B83D1F9E7237F002BF6D023004C
:1052B000D6331B78012BF3D0002B0CD0032BEDD170
:1052C000631CDB7F002BE9D0584B1B6841331B78F4
:1052D000012BE3D16BE7E379E3E7637D002B01D199
:1052E0005B4DEAE42000FFF767FB2300A233197847
:1052F000013103F01DF8534B984200D85BE7EFE70C
:10530000637D002B00D15AE72000FFF755FBB84220
:1053100000D954E72300A33302931978013103F035
:1053200007F82379002B0BD04A4B984200D946E767
:10533000A37F002B06D1237D002B39D1464DBCE441
:105340003C4BF2E723000222D8331B88FF32934202
:1053500004D022D8002B28D0012B24D1617D002934
:1053600021D00226934208D03C4AB619934204D079
:105370003B4A0436934200D0073E2000FFF71CFB57
:105380002300DA331978013102F0D2FF310002F044
:10539000CFFF2C4B9842CED905E030498B42DDD06F
:1053A0002F498B42DAD02F4D87E401262E48E7E7BC
:1053B000E37C002BC2D02000FFF7FEFAB84200D9F0
:1053C000FDE62700E31C0393029BA4371978261DF2
:1053D000013102F0ADFF3978013102F0A9FF154B20
:1053E0009842ABD89621002001F022FF2378002BB1
:1053F00049D06378002B10D0E31CD87F012806D950
:10540000631DDB7F002B33D102F092FC32E002F00F
:10541000EDFC0028F4D0154D4FE4F07F022801D0B8
:105420000528EDD102F042FDF3E7C046D40B020897
:105430008C0F1A0100E1F50500AB8704BE0F1A01BD
:10544000AF0F1A010084D7178F0F1A018E0F1A01A0
:105450008D0F1A0140787D018B0F1A0101020000A7
:1054600001030000890F1A0100127A006F0F1A0160
:1054700002F02EFC0028CED102F0BAFDA378002B5A
:105480005BD002F093FDBC4B1B6841331B78012BB2
:1054900009D100F0B1FE631CDB7F002850D0002B47
:1054A00001D100F0B3FE0822B44B1E68237A1640E7
:1054B0004DD0002B04D17B2001F066FE00F058FE99
:1054C000237F002B0ED02300D6331E7800F02AFD58
:1054D000864207D002F0A6FD002800D0BEE33000CF
:1054E00000F00CFD0122A64BA649C858A31CDB7F87
:1054F000104203D0A448095811424FD1002B51D07B
:1055000002F070FE2300E8331968043B1868083382
:105510001B682200DBB200932300DC32E033C9B207
:10552000C0B21B681268FCF7ABFD00283AD0974B5D
:10553000984237D0964DFFF7C0FB02F047FDA2E737
:10554000002BB0D002F04EFE00F03AFEABE7002B8D
:10555000B6D002F047FEA06D00280FD0E36D002BFF
:105560000CD033003200216E0096FDF7DBF8009678
:1055700033003200616EE06DFDF7D4F8230056333E
:105580001878002800D0012000F002FE814800F0C9
:10559000CBFD002894D0804DFFF78FFB002B01D16D
:1055A000FCF722FD00F0C6FE637902283ED1002BF5
:1055B00001D100F0ADFEA379002B0ED0E06C0028E5
:1055C00008D0230054331B7808220093216D002358
:1055D000FDF7A8F8A06C00F089FEA37C002B04D096
:1055E0002300A233187800F0CBFCE37C002B03D01F
:1055F000029B187800F0A0FC237D002B02D03878A5
:1056000000F076FB2600122296363388FF32934252
:1056100049D12300A5331978002944D1012000F095
:1056200087FF00282BD05D4DFFF747FB002BC2D032
:1056300002F0D8FDA06B002810D0E36B002B0DD03A
:105640000026216C330032000096FDF76BF80096BF
:1056500033003200616CE06BFDF764F8636B226B22
:10566000E16AA06A00F074FE002802D04C4DFFF7FA
:1056700024FB4C4800F018FF00289CD0F6E70121DD
:1056800000F0EEFC00280BD1237B002B14D03188D6
:10569000002000F04DFF00280ED0434DFFF70DFB1A
:1056A000424DFFF70AFB230098331988012000F0D0
:1056B0003FFF0028E8D0B6E7A37B002B0AD02300E9
:1056C0009A331988022000F033FF002802D0384DA9
:1056D000FFF7F3FAE37B002B1BD1237C002B29D1AE
:1056E000637C002B37D100F0ABFF00286AD001F0BB
:1056F000C9FB07002000FFF7A5F9637A002B01D052
:1057000087425FD000F0AEFF00285BD0294DFFF745
:10571000D4FA194B1B683E331B78032BDDD92300C9
:105720009C331988032000F003FF0028D5D0224DB8
:10573000FFF7C3FA104B1B683E331B78042BCFD9FD
:1057400023009E331988042000F0F2FE0028C7D001
:105750001A4DFFF7B2FA084B1B683E331B78052B36
:10576000C1D92300A0331988052000F0E1FE0028EC
:10577000B9D0134DFFF7A1FAD40B0208000027405F
:10578000A0F0010000003C40B4F00100030016004E
:105790005D0F1A0140420F005A0F1A014E0F1A01F5
:1057A0005F0F1A01B80B00004F0F1A010F0F1A01FB
:1057B0004D0F1A013F0F1A014C0F1A014B0F1A011E
:1057C0004A0F1A01637A002B00D096E02700A53714
:1057D0003978002000F044FC002800D060E7230066
:1057E000A633197800F06EFC002800D058E712228A
:1057F0003388FF32934200D1B9E0C94F3B683F3351
:105800001B78002B5CD0012001F042F8002800D06A
:10581000BFE0A37A002B22D0012001F039F8002844
:105820001DD1230084331B7805AE337023008533EC
:105830001B787370230086331B78B3702300873383
:105840001B78F370230088331B78337102F0CAFC95
:1058500031000120FFF7CAF8002800D0AFE03B6814
:105860003F331B78012B2BD9022001F011F80028BF
:1058700000D0A7E0E37A002B22D0022001F008F844
:1058800000281DD1230090331B7805AE3370230010
:1058900091331B787370230092331B78B37023000D
:1058A00093331B78F370230094331B78337102F029
:1058B00099FC31000220FFF799F8002800D097E00A
:1058C000012000F099FBA37D002800D19CE0002B73
:1058D00000D190E0022000F08FFBE37D002800D093
:1058E0009EE0002B00D19DE02300B5331A78013BE8
:1058F00019780220FFF78EF8ACE000F0A1FE002836
:1059000000D063E702F06EFCE36E05A80593230068
:1059100070331B888380230072331B7883712300CC
:1059200073331B78C371230074331B8803812300F6
:1059300076331B788372230077331B78C37223007E
:1059400078331B88838123007A331B788373230089
:105950007C331B88038200F0A9FE002800D0D5E626
:10596000704800F033FF002800D12FE7CEE63B78E7
:10597000002B00D041E7637B002B00D153E62300CE
:1059800098331988012000F0D3FD002800D134E7B6
:1059900049E6012001F0BAFA210006000120FFF7D4
:1059A0006FF8A37A002B02D0864200D131E702F0D3
:1059B00019FC012000F080FF002800D129E75A4D92
:1059C000FFF77BF9022001F0A1FA21000600022076
:1059D000FFF756F8E37A002B02D0864200D149E760
:1059E00002F000FC022000F067FF002800D141E730
:1059F0004E4DFFF762F9012000F010FB002800D1A6
:105A000068E74B4DFFF759F9002B00D162E72300FF
:105A1000AD331A78013B19780120FEF7FBFFEDE763
:105A2000002B14D03B6840331B78032B17D903207D
:105A300000F0E2FA237E002826D0002B0FD10320AD
:105A400000F0ECFA00280AD03A4DFFF736F90220B0
:105A500000F0E4FA0028E5D0374DFFF72EF93B6857
:105A600040331B78042B1AD9042000F0C5FA637E5A
:105A700000282FD0002B12D1042000F0CFFA0028EC
:105A80000DD02E4DFFF719F9002BE8D02300BD33C0
:105A90001A78013B19780320FEF7BCFFD2E73B6878
:105AA00040331B78052B20D800F00CFAA37F002888
:105AB00048D1002B4AD02300D8331F889E7800F0AD
:105AC0000BFA380000F0B8F9300000F0CFF900F020
:105AD000E5F93BE0002BE2D02300C5331A78013B07
:105AE00019780420FEF796FFC9E7052000F084FA34
:105AF000A37E002809D0002BD6D1052000F08EFA15
:105B00000028D1D00E4DFFF7D8F8002BCCD02300C1
:105B1000CD331A78013B19780520FEF77BFFEFE7BC
:105B2000D40B0208400D03002F0F1A012E0F1A018B
:105B30009E0F1A019C0F1A019D0F1A019B0F1A014B
:105B40009A0F1A01002B01D100F0C6F900F03EF9BE
:105B5000E37E002819D0002B01D100F041F9637FCA
:105B6000002B04D02300D733187800F04DF9230020
:105B70003C4F55331E783B78B3421BD002F052FAAB
:105B8000002813D0384DFFF798F8002BE7D02300FA
:105B9000D4331F785E7800F023F9380000F0D0F895
:105BA000300000F0E7F800F0FFF8D8E7300000F030
:105BB00089FB3E7000F05EFBE379002820D0002BCB
:105BC0000ED1A32001F0E0FA00F054FB002807D02A
:105BD00002F028FA0028D5D100F056FB0028D1D1D8
:105BE0002378002B08D0637D002B05D02300A83339
:105BF0002079196801F01CFB02F0F4FAFFF75DF858
:105C0000002BEDD000F036FB0028E9D102F00AFAB3
:105C10000028B7D100F01AFBE2E7144DFFF74DF86A
:105C2000134DFFF74AF8134DFFF747F8124DFFF7F2
:105C300044F8124DFFF741F8114DFFF73EF8114DB2
:105C4000FFF73BF8104DFFF738F8104DFFF735F828
:105C50000F4DFFF732F80F4DFFF72FF80E4DFFF7FE
:105C60002CF8C046180802085C0F1A01FE0F1A0132
:105C7000EF0F1A01EE0F1A01ED0F1A01DF0F1A01D3
:105C8000DE0F1A01DD0F1A01DC0F1A01DB0F1A01FA
:105C9000DA0F1A01CF0F1A011F0F1A01F0230A049D
:105CA0001B0330B51A400F240B0023401A43084B46
:105CB0001D68830228691B188020C0011A501858DB
:105CC0002040401A411E884102494042084030BDF0
:105CD000D40B02080300C200044B10301B68800282
:105CE0001B69C0580F2318407047C046D40B0208E8
:105CF00010B50200040000232B21072003F020FF31
:105D0000064B24021B681A00883212681B689B1815
:105D10001868034A10402043186010BDD40B0208D5
:105D2000FF00FFFF054B1B681A0088321B681268D2
:105D30009B181868000AC0B27047C046D40B02080E
:105D400010B50200040000231F21072003F0F8FE15
:105D5000A022F0200549D200000124028B58044003
:105D6000034803401C438C5010BDC0460000264031
:105D7000FFF0FFFF10B502000400002320210720E0
:105D800003F0DEFEA022E0200549D200C00124037A
:105D90008B580440034803401C438C5010BDC04640
:105DA00000002640FF8FFFFF10B5002301222121B4
:105DB000072003F0C5FEA02280230349D2008858A3
:105DC0001B0203438B5010BD00002640A023034A52
:105DD000DB00D0580004C00F7047C04600002640CA
:105DE000002310B51A002221072003F0A9FEA022EB
:105DF0000349D2008B58034803408B5010BDC04666
:105E000000002640FF7FFFFF10B5020004000023C2
:105E10002321072003F094FEC021054A89002402B3
:105E200013680C4003490B401C43146010BDC0466E
:105E300000002740FFFCFFFF10B504000200002314
:105E40001B21072003F07CFE044A054B0549D0586E
:105E5000084005490C402043D05010BD00002640AA
:105E600004050000FEFCFFFF0103000010B5040064
:105E7000020000231C21072003F062FE044A054BA8
:105E80000549D058240408402043D05010BDC046D6
:105E90000000264004050000FFFF00FF10B50023AE
:105EA00001221D21072003F04BFE80230349044AF1
:105EB0001B06885803438B5010BDC0460000264087
:105EC00004050000024A034BD058C00F7047C0467B
:105ED0000000264004050000002310B51A001E2112
