:020000041000EA
:1004000000C00E08EB0400100D00000049050010AC
:1004100000000000000000000000000000000000DC
:100420000000000000000000000000004505001072
:100430000000000000000000450500104505001008
:100440004505001045050010450500104505001044
:100450004505001045050010450500104505001034
:100460004505001045050010450500104505001024
:100470004505001045050010450500104505001014
:1004800010B5064C2378002B07D1054B002B02D06A
:10049000044800E000BF0123237010BD00060E08D1
:1004A0000000000050970010044B10B5002B03D043
:1004B0000349044800E000BF10BDC0460000000032
:1004C00004060E08509700100230800803D0013057
:1004D0000238FCD1C046C0467047EFF3108072B6B8
:1004E000704780F3108870477047FFF7FDFF72B6C2
:1004F0000E4C0F4DAC4209DA21686268A368043BD8
:1005000002DBC858D050FAE70C34F3E709490A4A2D
:100510000020521A02DD043A8850FCDC07480849E2
:100520000860BFF34F8F07F0D9F8FEE75C97001023
:100530007497001000060E082C110E0800000E081B
:1005400008ED00E0FEE7FEE700B504207146084232
:1005500002D0EFF3098002E0EFF30880043006F0E8
:1005600063F9FEE70300093B0122042B02D920387E
:100570004242424110007047F0B5002517000600C6
:100580002C0089B003930E9B02901B0CDBB20493EA
:100590000E9B00911B0ADBB205930E9BDBB2079307
:1005A000731C069333780193002B08D0009B002B1B
:1005B00022DB029A731C9B1A009A9A421CDA0E9B49
:1005C000DBB2002B00D1B4E0019A9A4200D0AEE039
:1005D000009B002B06DB029A731C9B1A009A934225
:1005E00000DDA4E0B31C7678032D00D9A1E028003B
:1005F00007F056F98989637B0198FFF7B3FF00285C
:1006000039D1079B019A9342D9D04F4E1100300047
:1006100008F03AFC031E08D1049B019A93420BD0C8
:10062000059B93426FD133003F33032D23D828001D
:1006300007F036F90510233533003E33F5E7002F78
:1006400006D0039A94425ED23F4A9B1A9B003B55C8
:10065000012510E0621C002F0BD003998A4252D270
:1006600039493C195B1A2178181101431B0121708B
:10067000BB5414000225069E92E7621C002F0BD08B
:1006800003998A423FD230493C195B1A217898106D
:1006900001439B012170BB5414000325EBE7002F9D
:1006A00008D0039A94422ED227493A195B1A11783E
:1006B0000B43137001340025DDE71D00002E22D00E
:1006C000009B002B22DB029B009AEB1A9A421DDA58
:1006D000019BB34217D1009B002B04DD029B009AC3
:1006E000EB1A93420FDC2E786B1C029A9D1A002E97
:1006F00004D0009B002B11DBAB420FDA002F18D087
:100700003B5D002B15D00124644219E03000FFF757
:1007100029FF0028DCD02E780135CFE73000FFF725
:1007200021FF0028EFD0029B5E5D0135DFE7002D41
:10073000E9D1039B9C42E6D2002F01D000233B5518
:10074000200009B0F0BDC046F0900010002210B5A6
:1007500004001000A15C0B00303B092B09D8303895
:100760000818531C032A03D000011A00042BF1D1EE
:1007700010BD0B00413B052B01D83738F0E70B00CB
:10078000613B052B01D85738EAE70020F0E700006D
:10079000F0B50B7885B0039017004D1C222B17D0B5
:1007A000116000202AE05C2A07D1019A5278002AC1
:1007B000F7D0019A013301320192019A013201927C
:1007C000019A1278222A00D1A7E0002AEBD1E8E7AB
:1007D00001950023F4E72B785C2B11D023700135B1
:1007E0000134019B9D42F6D30023039A2370083302
:1007F000D36013000198029A01301A6105B0F0BD70
:100800006B78662B63D014D82F2B61D007D8222B9E
:100810005ED0484B3D601B6802989847C1E75C2B4F
:1008200056D0622BF5D1082323700134063BED1816
:10083000D7E7722B50D006D86E2BEAD10A2323704B
:100840000134083BF3E7742B48D0752BE1D1019BB1
:100850005B1B052BDDDDA81CFFF778FF364B374A05
:10086000C31806009342D4D90028D2D0344B334A5F
:10087000C318934234D8019AAB1DD31A052BC8DD97
:10088000AB795C2BC5D1EB79752BC2D12800083030
:10089000FFF75CFF284B294AC3189342B9D8294B6C
:1008A000B6021E4080238005800D5B020643F618C9
:1008B0000C23254A96421FD9244A9642A9D83F20A4
:1008C0003040802676420643E670042212E00C2374
:1008D000237001340223AAE70D23F9E70923F7E780
:1008E0007F2804D91A4B98420ED90623E1E7062344
:1008F00001222070A4189AE73F20304080267642DB
:100900000643A6700322F5E73F20802306405B42A2
:100910001E43667086330222ECE7019A501AC01A11
:100920000C4B04301B6898470290041E00D058E717
:1009300037E7C04680000E080024FFFFFF030000D9
:100940000028FFFF00FC0F00FFFF0000FFFF10006A
:10095000FF07000084000E08002803D00378013B45
:100960001F2B00D970470130F6E70000064B10B589
:100970001B6828209847041E03D02822002108F075
:10098000C0F9200010BDC04684000E080849094A7D
:10099000002803D1084B0B60084B07E00368002BCD
:1009A00000D1054B0B604368002BF5D013607047F6
:1009B00084000E0880000E08A58C0010B98C001071
:1009C000F8B5802604007600002C00D1F8BDE3685D
:1009D0002768334204D1A068002801D0FFF7F0FF58
:1009E000E3680B4D334204D12069002801D02B6805
:1009F00098478022E3689200134204D1206A0028BD
:100A000001D02B68984720002B6898473C00DBE713
:100A100080000E08F0B5040085B00F001600002914
:100A200001D1002013E004226F49380008F04CFA8D
:100A3000002803D10223E360381D08E005226B493A
:100A4000380008F041FA002803D1E060781D05B0B5
:100A5000F0BD04226649380008F036FA002806D1B5
:100A600001230122E3600023A261E361E4E73B7814
:100A7000222B05D1320039002000FFF789FEE6E77E
:100A80002D2B03D01A00303A092A24D800250A2237
:100A900003A93800039508F0D5FA030003988742AC
:100AA000BFD05A1C0AD1534A914211D10122514B55
:100AB0005242A261E3610423E360C8E7002B07D13F
:100AC00080221206914203D1802300221B06F0E708
:100AD000A361E161EFE75B2B35D1781CFFF73CFFA9
:100AE000037805005D2B26D00023013D0193009380
:100AF000FFF73CFF009B071E6FD0002B19D0019B16
:100B000018604360681CFFF727FF320001003800BF
:100B1000FFF780FFFFF720FF051E06D0037801973F
:100B20002C2BE5D05D2B08D030600098FFF748FFF4
:100B300077E70090E6E7002300931023E360009B33
:100B4000681CA36083E77B2B4BD1781CFFF704FF65
:100B5000037807007D2B38D00023013F01930093D9
:100B6000FFF704FF009B051E37D0002B17D0019B19
:100B700018604360781CFFF7EFFE32000100280088
:100B8000FFF706FEFFF7E8FE0028CED02B692B62A8
:100B900000232B6103783A2B03D03060C5E7009027
:100BA000E8E70130FFF7D8FE320001002800FFF728
:100BB00031FFFFF7D1FE071EB7D0037801952C2B2C
:100BC000CED07D2B03D03060AFE7002300932023ED
:100BD000E360009B781CA36039E7002B00D120E77D
:100BE000A3E737601DE7C0462F9100103491001035
:100BF0003A910010FFFFFF7FF7B505000E0001924C
:100C00000F1E00D1144FFFF7B1FE002304003B601C
:100C100098420DD02800FFF79FFE3A000100200007
:100C2000FFF7F8FE051E05D12000FFF7C9FE0024DE
:100C30002000FEBD019B002B0AD0FFF78DFE03783C
:100C40000500002B04D02000FFF7BAFE3D60EEE760
:100C5000002EEDD03560EBE71C060E08002210B523
:100C60001100FFF7C9FF10BD802233B5450AFFB060
:100C70006D02040029009200684608F039F801234B
:100C80006A46E405E40D69462800135501F0E2F9CF
:100C90007FB036BD10B5183909180B780020012B2C
:100CA00002D00800FFF7E0FF10BD0000F0B58DB0E6
:100CB0001D0015AB1B780E0003930023170005A938
:100CC00006AA0593069300F048F9041E4BD12F4B5A
:100CD0003200009306993B000598FFF74DFC002871
:100CE00051DD0C22210009A808F00BF8022008AA07
:100CF00007A9FF300794089400F0A6FF002802D04F
:100D0000652464422FE02900079800F063FE002864
:100D1000F6D1033008AA07A9FF3000F095FF00289C
:100D2000EED11299079800F0F3FD041E1BD109A91A
:100D3000300000F02AF9041E15D112990A9800F02B
:100D400043FD041E0FD1039A29000B9800F03CF9D3
:100D5000041E05D1139B002B08D1149B002B0DD131
:100D60000998FFF72DFE20000DB0F0BD13990998EA
:100D700000F006FC0028F0D00400F1E7149909986F
:100D800000F0D4FCF8E71424BBE7C046005F2D0058
:100D9000F0B58BB01F0010AB059204CB04911B780B
:100DA00006920793002309AA08A90600089309934D
:100DB00000F0D3F8041E22D1099800F06BF804006B
:100DC00007F070FF051E20D0114B02000093099917
:100DD00023000898FFF7D0FB002813DD079B2200B3
:100DE0000393069B01970293059B29000093300013
:100DF000049BFFF75BFF0400280007F05DFF200065
:100E00000BB0F0BD14246442F6E764246442F6E7B4
:100E1000005F2D0010B5010004000B4808F042F8F7
:100E2000002398420DD02100084808F03BF8012328
:100E3000002806D02100064808F034F84342434118
:100E40005B00180010BDC046249300102D930010C5
:100E50003593001010B5010004000B4808F022F88B
:100E6000002398420DD02100084808F01BF8012308
:100E7000002806D02100064808F014F843424341F8
:100E80005B00180010BDC0460A93001013930010B9
:100E90001F93001003235843800898430430704781
:100EA000F8B50D0000281FD000291DD0C3680860C8
:100EB000202B1CD184680F4F002C01D12000F8BDDD
:100EC000266A002E06D031000B4807F0EBFF002801
:100ED00002D16C602468EFE73100380007F0E2FFD0
:100EE0000028F7D1AC60F5E701204042E7E7022097
:100EF000FBE7C046439300103D930010F0B5070098
:100F00000D00002491B001AE002D02D1280011B0D7
:100F1000F0BD296A002904D0380007F0C3FF00287B
:100F2000F4D0AB68002B06D00E2C12D8A20095513D
:100F300001341D00E8E72B68002BFAD1002C0AD001
:100F4000013CA3009B591B68002BF2D1002CF7D168
:100F5000EFE70025DAE72500D8E7F8B50E002E21E7
:100F6000170007F091FF041E0CD0451C2E2128000D
:100F700007F08AFF002805D0001B013838600020E8
:100F80003560F8BD16204042FBE770B50500002033
:100F90000C00FFF7FBFC2800FFF760FE002803D0E1
:100FA0002100FFF77DFF70BD05204042FBE70023D5
:100FB00004220133002901D1904203D952001D2B94
:100FC000F7D1023318007047F0B50C0087B001006C
:100FD000C1480592FFF792FF002800D18BE2836899
:100FE0000093019300231F0004930393019B002BA4
:100FF0006CD1009BDB680193202B00D07CE2009E2B
:101000003100B648FFF77AFF051E00D1E6E0037E07
:10101000059A9A4200D0E1E00100B148FFF76EFF67
:10102000002800D1D4E0836923702900AD48FFF780
:1010300065FF1423002800D0836963602900AA4853
:10104000FFF75CFF0123002802D0C3685A1E9341BA
:1010500023722900A548FFF751FF002800D1BAE00C
:101060008369E360002329006376A148FFF746FF08
:10107000002807D001699F4807F014FF002801D11C
:10108000012363762300627E49331A70009E002F8D
:1010900000D031E231009148FFF730FF002800D145
:1010A000A1E02278037E9A4200D09CE03100924871
:1010B000FFF724FF002800D10AE130238269551E82
:1010C0006B43E3181A760223019393E001998B484E
:1010D000FFF714FF002802D08668002E03D1019B81
:1010E0001B68019382E731008548FFF707FF00285E
:1010F0004BD0002503690293824AAB0099580298AD
:1011000007F0D0FE002800D1F9E10135042DF3D11C
:1011100000257D4AAB009958029807F0C3FE071ED0
:1011200005D00135172DF4D10527183D7F42310038
:101130007648FFF7E3FE002801D08369049331006D
:101140007348FFF7DBFE002804D0C1698069FFF710
:101150002EFF03906B1C18D0039B002B15DDA922DA
:101160006B00E31852009A5C012A04D12A0004990A
:101170000E32D20011515422FF329B5C012B04D15C
:101180000E35ED00039B65196B603668A5E7614974
:10119000029807F087FE0028F7D131005B48FFF77F
:1011A000ADFE002806D0A2235B00E35C012B01D139
:1011B0008369A36631005648FFF7A0FE0028E4D0FB
:1011C0004623FF33E35C012BDFD18369E366DCE771
:1011D00001277F4229E7FA231B0142E73668002EE8
:1011E00000D00DE752E73668002E00D052E7012309
:1011F00035000193002E00D098E031004648FFF7FB
:101200007DFE002800D0FFE031004448FFF776FE65
:1012100000280ED00D236B43E3182A33FF331B78CD
:10122000012B06D1C2682F33511E8A416B43E3184C
:101230005A7031003A48FFF761FE00280ED00D23A6
:101240006B43E3182C33FF331B78012B06D1C268A4
:101250002F33511E8A416B43E3181A743100314811
:10126000FFF74CFE00280CD00D236B43E3182C3302
:10127000FF331B78012B04D12F336B438269E318B2
:101280009A7431002848FFF739FE002800D1CBE0DE
:10129000C368102B00D0C7E082680D2123200023F3
:1012A0006943684361180290002A00D1BCE01F0026
:1012B0003237FF37CF5D012F04D10298C7189069EC
:1012C0002C37C8550133032B00D1ADE01268EBE792
:1012D0000123050001938DE70A930010EC910010A3
:1012E0006B910010729100107A910010859100109E
:1012F000919100109E910010A39100104C9100104C
:1013000065930010E4000E0888000E085691001046
:101310005E91001063910010AF910010489300108F
:10132000C6910010CE910010DD910010310086486A
:10133000FFF7E4FD002800D15FE78768002F00D1A8
:101340005BE739008148FFF7D9FD00282DD00369FC
:101350007F491800029307F0A5FD002827D1390026
:101360007C48FFF7CBFD00280CD00D236B43E3181E
:101370002E33FF331B78012B04D12F336B4382694B
:10138000E318DA6139007448FFF7B8FD00280CD083
:101390000D236B43E3182F33FF331B78012B04D14C
:1013A0002F336B438269E3181A623F68C6E76B49C3
:1013B000029807F077FD0028F7D139006548FFF75C
:1013C0009DFD00280CD00D236B43E3183033FF3311
:1013D0001B78012B04D12F336B438269E3185A62C7
:1013E00039005D48FFF78AFD0028DED00D236B43EE
:1013F000E3183033FF331B78012BD6D12F336B43E7
:101400008269E3189A62D0E70D236B43E3182D330A
:10141000FF331B78012B00D0F6E62F336B43826934
:10142000E318D2B25A61EFE631004D48FFF766FD8E
:1014300030236B43E31800284CD082699A70310046
:101440004848FFF75BFD002846D03022C169836918
:101450006A430B43591E8B41A2185374002D1CD1B3
:1014600031004148FFF74AFD1423002800D083696A
:10147000636331003D48FFF741FD22003832002808
:1014800030D0C368591E8B41137031003848FFF7C4
:1014900035FD002828D08369E363019B022B2AD104
:1014A000009E31003348FFF729FD00281FD08269D4
:1014B000D3B2022B1BD13027551E6F43E21913768E
:1014C00031002D48FFF71AFD002801D083693B55F4
:1014D0000123F9E59870B2E7302301226B43E3184A
:1014E0005A74BBE71070D0E7FA231B01D4E73668C3
:1014F000002ED6D1ECE70027380007B0F0BD1F4919
:10150000029807F0CFFC002800D040E631001148D7
:10151000FFF7F4FC002806D0A1235B00E35C012B5D
:1015200001D18369236631000B48FFF7E7FC0028EF
:1015300000D12AE64423FF33E35C012B00D024E6EC
:101540008369636621E6C0464C91001065930010E4
:10155000B9910010569100105E910010BE910010DC
:10156000E7910010EF910010729100107A91001035
:1015700085910010A3910010EC910010FA910010D9
:10158000F0B5554BBDB003AC63600E000B1DE360BE
:10159000524B0C36236101236662514E0A00A6624B
:1015A000CE1826634F4E083266630E001036E6638F
:1015B0004D4EA26126640E001436A6644B4E4C4A72
:1015C000E6640E00183666654A4E0025A6650E00D4
:1015D000E26102221C36039163612262E36263646A
:1015E0002365A560A563E3652666434EA36666662C
:1015F0000E002036E666414E626726670E002436EE
:10160000A6673F4E2392E6670E00283624963D4E8D
:10161000269325960E002C3627963B4E2993289626
:101620008E182A96394E32922B96CE1C2D96384E15
:101630002C952E960E0030363096364E2F953196DC
:101640000E003436339635920A0038323692324ADA
:10165000324E37923C31324A39910100314834964A
:1016600038933A923B93FFF749FC0600A84219D001
:101670008368AB4216D00C236B43E71831007868BF
:101680000193FFF73BFC002809D0C368042B06D167
:10169000BB68012B12D0002B07D0022B13D00135D1
:1016A000132DE8D100203DB0F0BD019BC169E25887
:1016B00083690B43591E8B411370F0E7019B8269CC
:1016C000E3581A60EBE7019B1749E2588369DB0195
:1016D0005B181360E3E7C0462592001032920010B9
:1016E0004A92001057920010619200106B92001005
:1016F0003F920010739200107A92001088920010AE
:10170000929200109D920010A9920010B6920010C3
:10171000C0920010CD920010E2920010D7920010FB
:10172000EE920010FB92001000003140F0B5224B09
:1017300087B003AA0E0032CB32C201001F48FFF768
:10174000DDFB051E0BD08368002B08D001001C4870
:10175000FFF7D4FB002304000193002C02D10020EA
:1017600007B0F0BDA4681748A168FFF7C7FB3700B2
:10177000002802D0C368042B0DD0019B022BECD0B3
:101780000133019303AA9B002900D058FFF7B6FB51
:1017900084360400E1E78369321D3B6003682468F6
:1017A0009B6921007B60D36F06480133D367FFF745
:1017B000A5FB0837DCE7C0464091001050930010AD
:1017C000A49300105C93001070B50C000100164843
:1017D000FFF794FB051E24D001001448FFF78EFB91
:1017E000002806D0E378012B03D10069FFF712FB34
:1017F000207029000E48FFF781FB002806D02379CE
:10180000012B03D10069FFF725FB6070290009480F
:10181000FFF774FB002804D06379012B01D18369A1
:10182000A370002070BDC0460B9200100E920010F5
:10183000199200102192001070B504000D0086B0BE
:101840000021142201A807F05CFA29002000FFF70C
:1018500055FB0400002C18D021001C48FFF74EFB5C
:101860000028F7D00569002D0AD0194E2900300054
:1018700007F018FB00280BD1310001A807F01CFB72
:10188000210001A8FFF73AFB0400200006B070BD5C
:10189000104E2900300007F005FB0028ECD029008D
:1018A0000D4807F0FFFA0028E6D00C4E2900300062
:1018B00007F0F8FA0028DFD02900094807F0F2FA0B
:1018C0000028DDD121000748C1E7C046659300101C
:1018D0008D930010769300107D9300108593001077
:1018E0006A9300107093001010B5FFF707FB0124F6
:1018F000002809D08168002906D00448FFF7FEFAC5
:10190000002801D0C468E4B2200010BD029300108A
:10191000F7B5040000200D00FFF738F82000FFF7AE
:101920009DF9071E4AD001002648FFF7E7FA041E7A
:1019300006D1012676423800FFF742F83000FEBD9E
:1019400001002148FFF778FF210006001E48FFF73D
:10195000CBFF0090002E2BD03069FFF75BFA6B466F
:1019600000261B782870EB7021001848FFF764FFF1
:10197000210000901548FFF7B7FF009B0190002B56
:1019800019D01869FFF766FA6B461B7968702B71DE
:1019900021000F48FFF750FF210000900C48FFF78F
:1019A000A3FF009B002BC4D09B696871AB70C2E79A
:1019B00001267642D8E701267642E9E705267642F7
:1019C000BCE7C0460B9200100E9200101992001056
:1019D00021920010F0B5050085B000200C00FEF744
:1019E000D5FF2800FFF73AF90190002800D115E152
:1019F00001008C48FFF782FA051E00D10AE18A4FE8
:101A000001003800FFF718FF290006003800FFF733
:101A10006BFF002E00D1E1E09422B3695200DBB2EB
:101A20002370A0542200303213703623FF33E05469
:101A300000237E4F290038000093FFF7FDFE2900A8
:101A400006003800FFF750FF002E00D1C9E0F36810
:101A50005A1E93412A22DBB2FF326370A054220047
:101A6000313213709B235B00E054714F2900380022
:101A7000FFF7E2FE290006003800FFF735FF002ED1
:101A800000D1B2E0F3685A1E93412C22DBB2FF3240
:101A90002374A0542200403213709C235B00E05456
:101AA000644F29003800FFF7C7FE29000600380000
:101AB000FFF71AFF002E00D19BE09622B369520077
:101AC000DBB26361A05463643A23FF33E0545A4E9F
:101AD00029003000FFF7B0FE290007003000FFF7B3
:101AE00003FF002F00D188E02200BB692C32DBB25B
:101AF00013703222FF32A05422005C3213709F22F6
:101B00005200A05422002D32137099225200A0548A
:101B100022005D3213704022FF32A05422002E3288
:101B200013703422FF32A05422005E321370A023BF
:101B30005B00E05401994148FFF7E0F90600002FEF
:101B400068D02E220123FF32A354D218A35430228E
:101B5000FF32A354D218A35423000222384FFE337D
:101B6000FF3201009A87DA873800FFF765FE3100FF
:101B700005003800FFF7B8FE0390002D41D0AB6997
:101B80000293304F31003800FFF756FE3100050058
:101B90003800FFF7A9FE002D38D0AD6922002100E2
:101BA0002300533229317033FF32FF31029E5D60D2
:101BB0001E606E46367B08331670507002329942B2
:101BC000F4D1A12302225B00FF32E2520233E2523F
:101BD0000198FEF7F5FE009805B0F0BD01235B42C9
:101BE00027E701235B4200933FE701235B42009319
:101BF00056E701235B42009369E701235B420093B0
:101C000098E701235B4202950093BAE701235B4208
:101C10000093C3E701235B420093D2E705235B42B5
:101C20000093D8E70A930010EC910010489300103D
:101C3000C6910010AF910010DD9100104C91001082
:101C4000569100105E910010DC23F0B59B0585B025
:101C50000093002302AD019502901848184C0668C5
:101C60006B60306A0768002F07DBA34203D10120B5
:101C7000404205B0F0BD0133F4E7A342F7D06B4614
:101C8000C3600123BC3683603368C0180023066834
:101C9000002E03DAA342EAD00133F8E7A342E6D0EC
:101CA000A02300981B06984201D00098E1E7029B10
:101CB000002013606B680B60DBE7C046F80A0E0873
:101CC000983A00000122F0B50024184B0668196804
:101CD00032400B6ABC310D6815495D191F68002F31
:101CE00006DB8C4202D101204042F0BD0134F5E711
:101CF0008C42F8D0002A00D106000120DE609860F6
:101D000000202C68002C03DA8842ECD00130F8E780
:101D10008842E8D0DB68002A00D11B68A02200209E
:101D200012069342E1D01800DFE7C046F80A0E0819
:101D3000983A00000A4B37B51B780500013B002498
:101D4000012B05D8074B01A80193FFF7BBFF040047
:101D5000002D02D0280004F011FD20003EBDC04639
:101D600020110E080101013A07B5034B01A80193A8
:101D7000FFF7A8FF0EBDC0460101003210B5FFF706
:101D8000F3FF002801D107F0A3F910BDF8B5060054
:101D900008001700FFF7CEFF1D4B1B68002B20DA51
:101DA00080241C4B1C4DA4002B511C4B1C481B6851
:101DB0001A009832196812688A181168084019497F
:101DC000014311601A00903212681B689B181022A0
:101DD00019681142FCD0012004F0D0FC2E51FFF70D
:101DE000CDFF002F0CD005F003FCC02201230E49CB
:101DF0005200885803438B5005F036FC05F0E0FB99
:101E0000300005F027FD002005F048F8FBE7C0464C
:101E1000000126400040001600002040F80A0E088D
:101E2000FCFF00000300FA0500002640C022012349
:101E3000044910B55200885803438B5005F014FC38
:101E400010BDC04600002640F8B5284B421E0500D4
:101E50009A4248D8264B1A78002A44D10124254FAB
:101E60001C703B78244E002B07D1FFF7DFFFE122E7
:101E7000D200B358A343B3503C70C02201210024C8
:101E80005200B3588B43B3501C4B1D801C4BA20017
:101E900099184988A94221D8D35A9D4200D21D00E1
:101EA000184B20001C7005F0C7FBC22328005B0004
:101EB000F65806F049FD144A144B05F0C5FE05F02E
:101EC000E3FD11231C1B103BA3408019C01A80B2F4
:101ED00005F0A0FBFFF7AAFF0020F8BD01340D2C90
:101EE000D5D1013CDCE701204042F6E76F17000046
:101EF00024060E0825060E080000264022060E08BD
:101F0000DC94001020060E0833DFC14F1C409F3FB9
:101F1000C0220120044952008B5883438B50002279
:101F2000024B1A707047C0460000264024060E0877
:101F3000C0220120024952008B5883438B507047C6
:101F400000002640014B18607047C046F80A0E0892
:101F5000044B1B681A00BA3212881B6A5043C0181F
:101F60007047C046F80A0E081D4B98420FD010D893
:101F700040282FD005D8002830D0102828D0194864
:101F80001EE0802828D080235B009842F7D11448B7
:101F900016E0154B984214D008D8A0231B0698428F
:101FA0001CD0124B9842EAD1A0200BE0104B984273
:101FB0000AD0104B984209D00F4B9842DFD10F48FE
:101FC0007047A420C003FBE70D48F9E70D48F7E789
:101FD0000D48F5E70D48F3E70D48F1E70020EFE77E
:101FE00006005200FF005200010000F0090000A0AE
:101FF000040000F0050000F0030000F001005200B2
:102000000200520003005200010050000200500084
:102010000500520010B50020FFF79AFF0A4B1C681C
:102020002300BC331B68C0180368002B0ADB074B76
:102030001868FFF799FF012263689A609A68002A7E
:10204000FCD110BD0248FCE7F80A0E0828060E086D
:102050000200500070B5C40506000D00E40D20D14B
:1020600000291ED005F096FB0F4B104A1A605C60E9
:102070009E60DD600E4B1B685233197800290BD02F
:1020800004F0E5FAFA21890005F028FC010009486E
:1020900005F024FC084BC1188020400007F020F810
:1020A00070BD0648FCE7C04628060E080001000582
:1020B000F80A0E08C0EA2101482600000600520076
:1020C0000E4B10B51B689C695B69001BC0090001C1
:1020D000C0181F231A40032907D8C9008B408A4023
:1020E00004689C432243026010BD0439C9008B4040
:1020F0008A4044689C4322434260F5E7F80A0E0890
:10210000F8B51F0006AB15001A7806000C00FFF7A3
:10211000D7FF012211001740A140A7403368A40057
:102120008B433B433360074B1B6881331B78F618A6
:102130000F2319001D40A140A54032688A432A435D
:102140003260F8BDF80A0E08064B1B68BC331B68EA
:10215000C3181B68002B03DA89B241600020704766
:102160000148FCE7F80A0E0801008A000368002B0A
:1021700004DA89B2C2608160002070470048FCE741
:1021800001008A00064B1B68BC331B68C3181B6820
:10219000002B03DAC36800200B6070470148FCE79E
:1021A000F80A0E0801008A00024B1A68002A00D1C2
:1021B000186070473C060E08F0B52C246043154C9F
:1021C0001F0024681D0A2018FF2425402740124CB8
:1021D0001B0C26680760346A45608360BA3636880F
:1021E00077433F1907612F0080376D017F01E719A1
:1021F00064190A4D47611F043B436419236000239F
:102200008361059BC2610162002B01D01B88838121
:10221000F0BDC0463C060E08F80A0E080810000083
:10222000F0B5836885B002AD2B800368066A17336A
:102230006B804368476A0095826AC16A0400039311
:102240000369C068FFF7B8FF00213B000A00009156
:102250003000FFF7B1FF216B280004F045FA00229F
:10226000AB5E002B06DB1F2213401E3A9A40130080
:10227000014A136005B0F0BD00E100E0F7B52C2580
:10228000134C684326686943341825690193711813
:10229000002D19D08869002818D12E68002E15DA73
:1022A0006768012426004B689E40B44613689EB2BE
:1022B00063461B041E431660EA608C61BC40019BB0
:1022C000A4B24B62AC60FEBD0248FCE70248FAE7EC
:1022D0003C060E0804028A0007028A0073B5002635
:1022E00042690400D56801962B0CB34221D01B042F
:1022F00013601368194B00691B68BC331B68C31853
:102300001B68B34215DA01A9FFF73CFFB0420CD1BC
:102310000198E26903681E0CDBB29A4205D9226A71
:102320009B009B58002B00D0984731002069FFF795
:102330000BFFADB2002D09D063691D6000251B683D
:10234000636AAB4205D098476562A56163691B6803
:1023500073BDA36A002BF8D09847F6E7F80A0E0879
:102360002C2310B54343034A1068C018FFF7B6FF8B
:1023700010BDC0463C060E08F8B5194B0F001B688F
:102380001A0033321278824227D9002925D01F251E
:102390000A68154021D11900BA310C88114E6043EA
:1023A0001C6AD208041929007868346006F0A9FC78
:1023B00029002000FFF7C8FE3A0029003068FFF727
:1023C000D5FE041E07D101003068FFF7BDFE0300F3
:1023D0002000002B00D00448F8BD0448FCE7C046AC
:1023E000F80A0E0840060E0801018A0003018A005F
:1023F00010B5002A0DD1002914D10B4B1A68130017
:10240000BA331B885843136AC018084B1860080079
:1024100010BD002906D0064B196019005A60FFF75D
:10242000ABFFF5E70348F3E7F80A0E0840060E088D
:102430000400000803018A00F7B5184F04003B6848
:102440000191DE683368834226D90025A94202D172
:10245000FEF743F8050038680368002B1ADA1F22DC
:1024600001232240934064097268A4001419226871
:1024700013420DD09A43226000240021FFF764FE2E
:10248000019B002B02D12800FEF72BF82000FEBD97
:10249000034CF2E7034CF3E7034CF7E740060E0862
:1024A000020188000301880004018A000A4B1B68AE
:1024B000DB681A6882420DD959681F234209184007
:1024C0001E3B8340920050581840431E9841034BD6
:1024D000C01870470248FCE740060E08000188005B
:1024E00004018A0070B59621002004F0B5F900219E
:1024F000080003F0EDF9444244412D4B64421C4076
:102500002C4B05000020E41803F040F9012003F0F3
:1025100019F9002002F0F2FF05F03CF9264E33686D
:102520003F331B78002B03D0012003F0C9FD0500C9
:10253000002D00D0214C33683F331B78012B03D989
:10254000022003F0BDFD0500002D00D01C4C002131
:10255000012003F0F3FB002800D01A4C002003F008
:10256000ADF9051E0ED103F01FFC1223FF33984274
:1025700008D10121280003F079F9002800D00D4C82
:1025800005F008F903F072FC002800D00E4C002181
:10259000080003F0D3FB002800D00C4C00210800F9
:1025A00003F064F9002800D0024C200070BDC04642
:1025B000F1F0E5FE0F0F1A01F80A0E082F0F1A01AD
:1025C0002E0F1A014E0F1A013F0F1A014F0F1A0159
:1025D00030B5134CC000031908300019002901D090
:1025E000072A06D901220021524219605A6006C00A
:1025F00030BD0C4C2468A5696469491BC9090901EF
:1026000009191960043101601F21032A03D8D2007F
:1026100091405960ECE7043AD20091404160E7E70D
:10262000FC0A0E08F80A0E08F0B5C400454E002951
:1026300000D17AE0072A00D977E0002336199D00FF
:10264000DF004D190133F551152BF8D1143B9340A0
:102650003D49736009194B603C49032509194B60DA
:102660003B49384F09194B603A4909194B603A49BF
:1026700009194B60394909194B60394909194B60EF
:1026800038490C1951000E00374963600C68B54099
:102690002100803109789200023189080918C900A7
:1026A000C9194D600F25210095408131097802310B
:1026B00089080918C900C9194D6035001035AC46A4
:1026C00021006646032582310978B5400231890828
:1026D0000918C900C9194B602100833109782B43BF
:1026E000023189080918C900C9194B60FE2301216C
:1026F0009B0084341A402378012502339B08181864
:10270000531CC0009940C71901200B00911C884040
:102710009540032603431D43D31C9E402E430725AB
:10272000053295402E437E60F0BD00230121180044
:1027300034194942E050E21808335160A82BF9D10E
:10274000F2E7C046FC0A0E08040B0E080C0B0E083C
:10275000140B0E081C0B0E08240B0E082C0B0E0875
:10276000340B0E083C0B0E08F80A0E08F7B50700EC
:1027700000880138082800D9EFE005F0A5F83E00F0
:10278000090024004B009600E000DD024E005A00D4
:102790007D88AC49E8000B185B68FA681C0014409F
:1027A0000ED15E1C0CD0922D0AD84158002907D0BA
:1027B000BD6808682B4303401A430A607C60F7BD7C
:1027C000A14B7B60FBE778889E4BC2009918496853
:1027D0004C1CF5D09228F3D8D0580028F0D0BB6814
:1027E00002680B4203D01C0054402142E8D10A4049
:1027F0001343036000237B60E1E77B88922BDFD8E3
:10280000904ADB009B58002BDAD01B68BB6000238A
:102810007B60D4E700237B60D1E7BB68022B05D146
:10282000FB681E2B02D100237B60C8E7874B7B60CF
:10283000C5E7BB68002B00D12DE2FA68052A00D954
:1028400029E200227A60824A12681178002924D095
:1028500091681960D16859607E4999605178002962
:102860001DD0116AD960916A19617B495961516A19
:102870009961D16AD961794919629178002911D099
:10288000116B5962916B99627549D962516BD26B28
:1028900019635A63734A9A6391E71960DEE7D96056
:1028A0009961EAE75962196389E7B968002900D19B
:1028B000F1E16D4C6D4D2378F02200930023280048
:1028C0007B6006F015FA03F08FFF002811D0FFF7A8
:1028D00009FE78607B68002B00D070E72800237029
:1028E00001F0CCFD7860002826D06B461B78237061
:1028F00065E72378002BEDD1EB78002BE7D0EB795F
:10290000002BE4D02B0055331E7803F05BFF00282A
:1029100002D0574B7B60DAE703F0B2F8002806D10B
:1029200003F09AF8300003F0D3F80023F2E703F045
:10293000B1F80028F4D0ECE7012323703FE77B884F
:10294000672B68D019D82F2B00D1DBE108D82C2BAE
:1029500000D19BE02D2B00D1F2E03B4B7B602EE7BA
:10296000322B00D1C6E1662B36D0302BF5D1B868BA
:1029700003F064F800237B6021E76E2B00D143E174
:1029800009D86C2B00D13AE16D2BE6D104F036FC6E
:1029900000237B6013E7702B00D148E100D23CE1BB
:1029A000712BDAD1BB681878022800D973E1842230
:1029B00001244243197A2F4BA4469A18131DDD6F48
:1029C0000023AB4200D07BE100237B60002B00D0D2
:1029D000F5E604F07FFB54E1BA68274B002A10D1DA
:1029E0005A68264911401B220A435A605968244AF2
:1029F0001143596059681143596059680A435A6034
:102A000011E7E82158681F4C8901204001435960B3
:102A10005A682240F3E71C4B1A681300BA3319882E
:102A200007234B43126A9B181A68002AFCDA80229B
:102A3000D96852050A43DA6000225A605B687A60FE
:102A4000BDE6C046FC0A0E08FF0F1A01F90F1A0175
:102A50003C070E082000890035008B004A008D00DD
:102A60005F008F007400910038070E0848060E08BA
:102A70006F0F1A01940F0E08000026400000FC0F93
:102A8000003A0280FF00FC0FF80A0E080024B1256E
:102A900080269F4BED001C809E4BB6051C809E4BF4
:102AA0001B683F331B789C4200D9BCE6002C1FD129
:102AB00003F0CAF9002819D0200003F075F90228A4
:102AC00035D1964B9C46002C16D16146944B5A59F1
:102AD0000A4032435A510021200003F02FF901230C
:102AE000A3408B4A12881343894A13800134D6E7E6
:102AF000200003F0D1FADDE70320894AA3008949C9
:102B00009B185A58120F024204D05A58120F024012
:102B1000012A06D10120A0407E4A128810437D4A36
:102B2000108060465A58024032435A50D3E7002C76
:102B3000DCD17B4A794953590B4033435351D5E794
:102B4000734B1B88002B0FD103F07EF9002849D16D
:102B5000002407E0013D02F0F3FF022806D0002D1B
:102B6000F8D1714C7C602AE6704DF4E7002DF8D066
:102B700000266D4C09E0013D03F06EF9002801D0FC
:102B800001F0C1F8002DF6D10136634B1B683F33CD
:102B90001B789E42E6D80123B3409BB200935C4B66
:102BA000009A1B881342EFD00221300003F0C6F8D0
:102BB000002EE1D0300003F079FA002801D001F0B6
:102BC000B1F8002DE0D0013DF4E7C02080050143BD
:102BD0009950D9E7013C03F03FF9002804D1002CBB
:102BE000F8D1BEE7514CF6E7002CBAD0B122C02391
:102BF0004B49D20088589B0503438B50A8E704F04B
:102C0000ABFA00237B60DAE5B868431E9841C0B296
:102C100004F004FB00237B60D1E5BB68187807282B
:102C200039D8597804F0CAFA00237B60C7E5BB683D
:102C3000187802282FD85A6800926A4612780F2A0C
:102C400029D8842444433A4E1A7A33190193043321
:102C5000DB6F00999C4601238B4000251C006545D5
:102C60000AD00199EB00C958214227D0022A15D079
:102C7000032A1BD0002A07D0002300997B6004F0B0
:102C8000EFF9002807D19AE5842444431B19F6186C
:102C90007368DB07F0D4274B7B6090E584244443C2
:102CA0001B19F61873681342E6D1F4E784244443F1
:102CB0001B19F61873685B07DED4ECE70135CEE725
:102CC00002290BD0032910D0002905D16646DC006B
:102CD00014196468344206D0013372E6DC0014191A
:102CE00064680C42F8D1134B6FE6DC001419646879
:102CF0000426EFE7BB681A891888596803F0ECFAD4
:102D000078605CE5B86803F09DFB786057E5C046E5
:102D100044060E0846060E08F80A0E08FFFFFFCF0D
:102D200000002640FC050000FA0F1A0140420F0087
:102D3000940F0E08FE0F1A01AE4B1B78002B01D129
:102D400000F0DDFF78880838632800D905E604F034
:102D5000B1FDDB00EC0000012B013E0159017001C7
:102D6000840104FE9801AC01C001E0012F027E0243
:102D70005E0322043F045C0479049504B104C50495
:102D8000F70413052F0543055705740588059C05B1
:102D9000C106EC061F075407B00704FE04FECD076A
:102DA00004FE04FE04FE04FE04FE04FE04FE04FE13
:102DB00004FE04FE04FE04FE04FE04FE04FE04FE03
:102DC00004FE04FE04FE04FE04FE04FE04FE04FEF3
:102DD00004FE04FE04FE04FE04FE04FE04FE04FEE3
:102DE00004FE04FE04FE04FE04FE04FE04FE04FED3
:102DF00004FE04FE04FE04FE04FE04FE04FE04FEC3
:102E000004FE04FE04FE04FE04FE04FE04FE04FEB2
:102E100004FE64008700AA00C2000122764C2379D8
:102E200065780093BB68E11CDBB226786270227083
:102E3000CB77002B11D12271FB68FF2B00D1F2E47C
:102E4000200001F01BFB7860002800D1B7E46B463E
:102E50001B78267065702371B1E400232371EBE7C2
:102E600001210022644C237965780093BB68201D02
:102E7000DBB2267862702170C377022B11D12171E9
:102E8000FB68FF2B00D1CEE4200001F0F7FA786058
:102E9000002800D193E46B461B782670657023717F
:102EA0008DE42271ECE7544C2378651D00930123D7
:102EB000EE7F2370EB77FB68FF2B00D1B3E420009B
:102EC00001F0DCFA7860002800D178E46B461B78CA
:102ED000EE77237073E4484C651DEB7F26780093F2
:102EE000012323700023EB77FB68FF2B00D19AE4CA
:102EF000200001F0C3FA7860002800D15FE46B463F
:102F00001B782670EB775AE400233B4C657963719C
:102F1000FB68FF2B00D186E4200001F0AFFA786057
:102F2000002800D14BE4657149E40023324CA56EC2
:102F3000667AA3666372FB68FF2B00D173E42000FE
:102F400001F09CFA7860002800D138E46672A5662A
:102F500035E4BB68002B23D0284A12683F32127830
:102F600093421DD80022244C012B13D1A57AA272C2
:102F7000FB68FF2B00D156E4200001F07FFA786057
:102F8000002801D1FFF71BFCBB68012B05D1A572FE
:102F9000FFF715FCE57AE272EAE7E572FFF70FFC4E
:102FA000174B7B60FFF70BFC0123134CE579E371B2
:102FB000FB68FF2B00D136E4200001F05FFA786057
:102FC000002801D1FFF7FBFBE571FFF7F8FB0023B9
:102FD000094CE579E371FB68FF2B00D123E4200065
:102FE00001F04CFA7860002801D1FFF7E8FBE571A9
:102FF000FFF7E5FB38070E0848060E08F80A0E082A
:10300000BD0F1A01CF48BB6804005A1E93415534C6
:1030100025782370FB68FF2B01D1FFF704FC01F03A
:103020002DFA7860002801D1FFF7C9FB2570FFF762
:10303000C6FB0123C348441CE57FE377FB68FF2BF5
:1030400001D1FFF7F0FB01F019FA7860002801D1F7
:10305000FFF7B5FBE577FFF7B2FB0023B948441C47
:10306000E57FE377FB68FF2B01D1FFF7DCFB01F085
:1030700005FA7860002801D1FFF7A1FBE577FFF79B
:103080009EFB0123AF4C257A2372FB68FF2B01D1F5
:10309000FFF7C9FB200001F0F1F97860002801D1A9
:1030A000FFF78DFB2572FFF78AFB0023A54C257ADD
:1030B0002372FB68FF2B01D1FFF7B5FB200001F065
:1030C000DDF97860002801D1FFF779FB2572FFF761
:1030D00076FBBB689B48DBB20400013B5A4253417C
:1030E00056342578237000237B60FB68FF2B01D1C9
:1030F000FFF765FB037A002B01D1FFF760FB01F0BE
:10310000BDF97860002801D1FFF759FB2570FFF762
:1031100056FB0024B8687C60052834D8894B01220E
:1031200004F0BEFB032225282B2E5C7D5A757B689C
:10313000002B01D0FFF743FBFB68FF2B01D1FFF70A
:103140003EFB804D280001F099F97860002801D1FC
:10315000FFF735FBB868052801D9FFF730FB04F00D
:103160009FFB15181B1E21249C7D9A75DFE7DC7DD3
:10317000DA75DCE71C7E1A76D9E75C7E5A76D6E7EC
:103180009C7E9A76D3E7704B7B60D0E76C75FFF737
:1031900016FBAC75FFF713FBEC75FFF710FB2C76F5
:1031A000FFF70DFB6C76FFF70AFBAC76FFF707FB2A
:1031B0000024B8687C60052834D82200614B04F0F4
:1031C0006FFB032225282B2E5C7D5A757B68002B14
:1031D00001D0FFF7F4FAFB68FF2B01D1FFF7EFFAFC
:1031E000584D280001F04AF97860002801D1FFF716
:1031F000E6FAB868052801D9FFF7E1FA04F050FBB8
:1032000015181B1E21249C7D9A75DFE7DC7DDA757D
:10321000DCE71C7E1A76D9E75C7E5A76D6E79C7E80
:103220009A76D3E7484B7B60D0E76C75FFF7C7FA17
:10323000AC75FFF7C4FAEC75FFF7C1FA2C76FFF70F
:10324000BEFA6C76FFF7BBFAAC76FFF7B8FA00254A
:10325000BB687D601868052800D9A5E0394C1B794A
:10326000220004F01DFB03384A5C7D8FA5321178E3
:103270001370364A009118001668657D03F0AAF9AC
:10328000A63423783249D84004F028FB2F4B18602D
:103290007B68002B01D0FFF792FA002D01D1FFF7D8
:1032A0008EFAFB68FF2B01D1FFF789FA254C20002D
:1032B00001F0E4F87860002801D1FFF780FABB68DC
:1032C0001868052801D9FFF77AFA230004F0E8FA14
:1032D0006F777F878F97AC32117813701D4A0091FA
:1032E00018001668A57D03F075F9AD3423781849E8
:1032F000D84004F0F3FA174BC9E7B43211781370D1
:10330000154A009118001668E57D03F063F9B5349D
:1033100023780F49D84004F0E1FA0F4BB7E7BC32ED
:10332000117813700D4A009118001668257E03F07D
:1033300051F9BD3423780649D84004F0CFFA074B41
:10334000A5E7C04648060E08FF0F1A01F0060E0852
:1033500040420F00F8060E0800070E0808070E0886
:10336000C43211781370E74A009118001668657E20
:1033700003F030F9C5342378E349D84004F0AEFABD
:10338000E04B84E7CC3211781370E04A00911800CA
:103390001668A57E03F01EF9CD342378DA49D840AB
:1033A00004F09CFAD94B72E7D94B7B6070E76A4610
:1033B0001278A533A8341A702660FFF700FA6A461F
:1033C0001278AC33B0341A702660FFF7F8F96A4609
:1033D0001278B433B8341A702660FFF7F0F96A46F1
:1033E0001278BC33C0341A702660FFF7E8F96A46D9
:1033F0001278C433C8341A702660FFF7E0F96A46C1
:103400001278CC33D0341A702660FFF7D8F9002632
:10341000BA687E601068052800D995E0BD4B127926
:1034200004F03EFA03384A5C6E80BB490D780A709E
:103430005E7DBA4AA5331878146803F0CBF8B64B12
:10344000B1491B78D84004F049FAB44B18607B6846
:10345000002B01D0FFF7B3F9002E01D1FFF7AFF930
:10346000FB68FF2B01D1FFF7AAF9AA4E300001F04B
:1034700005F87860002801D1FFF7A1F9BB6818684A
:10348000052801D9FFF79BF9330004F009FA6066BB
:103490006C72787EA2490D780A709E7DA14AAC3389
:1034A0001878146803F096F89D4B97491B78D8401C
:1034B00004F014FA9B4BC9E79B490D780A70DE7D36
:1034C0009A4AB4331878146803F084F8964B8E49FE
:1034D0001B78D84004F002FA944BB7E794490D7872
:1034E0000A701E7E934ABC331878146803F072F891
:1034F0008F4B85491B78D84004F0F0F98D4BA5E738
:103500008D490D780A705E7E7E4AC433187814683F
:1035100003F060F8884B7C491B78D84004F0DEF952
:10352000784B93E785490D780A709E7E774ACC33B5
:103530001878146803F04EF8804B73491B78D84014
:1035400004F0CCF9714B81E7714B7B607FE7A633C8
:10355000A8361D703460FFF732F9AD33B0361D70F8
:103560003460FFF72CF9B533B8361D703460FFF7BF
:1035700026F9BD33C0361D703460FFF720F9C5331E
:10358000C8361D703460FFF71AF9CD33D0361D7080
:103590003460FFF714F95F4C2500A2352B78A67C28
:1035A00000930123A374BB682B70FB68FF2B01D130
:1035B000FFF739F9200000F061FF7860002801D1A1
:1035C000FFF7FDF86B461B78A6742B70FFF7F7F832
:1035D000504C2500A3352B7800930123E67CE3743F
:1035E000BB682B70FB68FF2B01D1FFF71CF9200093
:1035F00000F044FF7860002801D1FFF7E0F86B4647
:103600001B78E6742B70FFF7DAF8424C2500D635AC
:103610002B78267F009301232377BB682B70FB68F0
:10362000FF2B01D1FFF7FFF8200000F027FF7860A3
:10363000002801D1FFF7C3F86B461B7826772B7063
:10364000FFF7BDF83348BB680400D83425882380D1
:1036500000237B60837F002B01D1FFF7B0F8FB686C
:10366000FF2B01D1FFF7ABF800F008FF78600028CE
:1036700001D1FFF7A4F82580FFF7A1F82548BB6822
:103680000400DA342578237000237B60837F002BCD
:1036900001D1FFF794F8FB68FF2B01D1FFF78FF8FA
:1036A00000F0ECFE7860002801D1FFF788F8257063
:1036B000FFF785F80123174CA57FA377FB68FF2B45
:1036C00001D1FFF7B0F8200000F0D8FE78600028A4
:1036D00001D1FFF774F8A577FFF771F800230D4CBF
:1036E000A57FA377FB68FF2B01D1FFF79CF8200093
:1036F00000F0C4FE7860002801D1FFF760F8A577DC
:10370000FFF75DF810070E0840420F0018070E087B
:10371000FF0F1A0148060E08EE060E08F0060E0806
:10372000F5060E08F8060E08FD060E0800070E083E
:1037300005070E0808070E080D070E0815070E08E6
:10374000E048BB680400D4342578237000237B60F4
:10375000C37E002B01D1FFF732F8FB68FF2B01D1AC
:10376000FFF72DF800F08AFE7860002801D1FFF7FE
:1037700026F82570FFF723F8D248BB680400D5343B
:103780002578237000237B60C37E002B01D1FFF7D7
:1037900016F8FB68FF2B01D1FFF711F800F06EFE61
:1037A0007860002801D1FFF70AF82570FFF707F8C5
:1037B0000123C44CE57EE376FB68FF2B01D1FFF7C4
:1037C00032F8200000F05AFE7860002801D1FEF7A0
:1037D000F6FFE576FEF7F3FF0023BA4CE57EE376CD
:1037E000FB68FF2B01D1FFF71EF8200000F046FE1A
:1037F0007860002801D1FEF7E2FFE576FEF7DFFFF3
:10380000B04C2500D7352B78667F00930123637772
:10381000BB682B70FB68FF2B01D1FFF704F8200079
:1038200000F02CFE7860002801D1FEF7C8FF6B463F
:103830001B7866772B70FEF7C2FFA24B59790029DF
:1038400003D0A14B7B60FEF7BAFFBA68106898629C
:103850005068D8629068D26818635A637960FEF73E
:10386000AEFF0123974C65796371FB68FF2B01D193
:10387000FEF7D9FF200000F001FE7860002801D19A
:10388000FEF79DFF6571FEF79AFF0025BA687D601F
:10389000106805284CD88B4B04F002F803272E350E
:1038A0003C431900012096311E7B0D8818739388C4
:1038B0000B807B68002B01D0FEF781FFFB68FF2B9C
:1038C00001D1FEF77CFF7F4C200000F0D7FDBB68E4
:1038D000786000284ED01868052801D9FFF73DF818
:1038E00003F0DEFF2A2F34393E43190001209831BE
:1038F0005E7B0D885873DAE7190001209A319E7BB0
:103900000D889873D3E7190001209C31DE7B0D8868
:10391000D873CCE7190001209E311E7C0D881874E5
:10392000C5E719000120A0315E7C0D885874BEE700
:10393000664B2E007B60BCE7267396342580FEF72D
:103940003EFF667398342580FEF739FFA6739A34DC
:103950002580FEF734FFE6739C342580FEF72FFFA9
:1039600026749E342580FEF72AFF6674A0342580D5
:10397000FEF725FF1868052801D9FEF720FF03F0A0
:103980008FFF03203F5F758B637A002B03D02000ED
:1039900000F0C0FCA0662300A5331878002801D0F1
:1039A000FEF70DFF02F016FE2300A6331B784849F0
:1039B000A83499404B08181803F090FF2060FEF7D8
:1039C000FEFEA37A002B05D02100012000F0C0FCF0
:1039D000231DD8672300A5331878012801D0FEF7EE
:1039E000EEFE02F0F7FD2300A6331B783849A83419
:1039F00099404B08181803F071FF2060FEF7DFFEB6
:103A0000E37A002B06D02100022000F0A1FC230065
:103A10008C3318602300A5331878022801D0FEF7F4
:103A2000CEFE02F0D7FD2300A6331B782849A83428
:103A300099404B08181803F051FF2060FEF7BFFEB5
:103A40002300A5331878032801D0FEF7B8FE02F052
:103A5000C1FD2300A6331B781D49A83499404B08AB
:103A6000181803F03BFF2060FEF7A9FE2300A533E2
:103A70001878042801D0FEF7A2FE02F0ABFD230067
:103A8000A6331B781249A83499404B08181803F044
:103A900025FF2060FEF793FE2300A5331878052844
:103AA00001D0FEF78CFE02F095FD2300A6331B78B3
:103AB0000749A83499404B08181803F00FFF2060FD
:103AC000FEF77DFE48060E08590F1A01FF0F1A0176
:103AD00040420F00BA689E4B1168D9661900908861
:103AE0007031088019009079723108701900D0790E
:103AF0007331087019001089743108801900907AA8
:103B0000763108701900D07A7731087019009089E1
:103B1000783108801900907B7A310870128A7C33E2
:103B20001A8000237B60FEF74AFE894C657A002DDF
:103B300003D0884B7B60FEF742FE012320006372B6
:103B400000F0E8FBFB68A066FF2B01D1FEF76BFEDF
:103B5000200000F093FC7860002803D0A566657211
:103B6000FEF72DFE2300A5331878002801D0FEF7BC
:103B700026FE02F02FFD2300A6331B787649A834D9
:103B800099404B08181803F0A9FE2060FEF717FEB5
:103B9000B9680A68002A05D0704B1B683F331B7850
:103BA0009A4203D96E4B7B60FEF709FE4B681E7884
:103BB0005D789C78D8781979654B012A0FD11A0065
:103BC000843216701A00853215701A00863214700D
:103BD0001A008732107088331970FEF724FE1A001D
:103BE000903216701A00913215701A0092321470C9
:103BF0001A00933210709433EEE7BD68012D0FD197
:103C0000534B9B7A002B07D1544B1B683F331B78D7
:103C10009D4201D8002D08D1524B7B60FEF7CFFDAD
:103C2000022DF1D14A4BDB7AECE7494C2100012D02
:103C300019D1280000F08CFB231DD867A572FB6802
:103C4000FF2B01D1FEF7EFFD200000F017FC78609C
:103C5000002817D0BA680023012A0DD1221DD3678E
:103C6000A372FEF7ACFD022000F072FB23008C3340
:103C700018600123E372E2E722008C321360E372E2
:103C8000FEF79DFD2300A5331878431E012B01D9B3
:103C9000FEF795FD02F09EFC2300A6331B782E490B
:103CA000A83499404B08181803F018FE2060FEF75E
:103CB00086FD274C2500A4352B78267D0093012313
:103CC0002375BB682B70FB68FF2B01D1FEF7ABFDA2
:103CD000200000F0D3FB7860002801D1FEF76FFDD3
:103CE0006B461B7826752B70FEF769FD0122184B79
:103CF0009A71BA689A6400237B60FEF760FD1A4BE4
:103D00007B60FEF75CFD002D01D1FEF73DFFB12287
:103D1000C0201649D2008B58800503438B500024E5
:103D2000FEF732FF002D01D1FEF72EFF104B0F4999
:103D30001C88009B0F4A1C40B3005B189958002C4C
:103D400001D1FEF742FF0C4801409950E7E7C04619
:103D500048060E083E0F1A0140420F00F80A0E08EE
:103D6000BD0F1A012D0F1A01FF0F1A010000264086
:103D700046060E08FC050000FFFFFFCFF0B5154D0D
:103D800087B02A6802AC1300BA331B88126A9B0002
:103D90009B18DB6827001E0001930ECE0EC7336808
:103DA00020003B60FEF7E2FC019B07CC07C38521A6
:103DB00080203B68490133602B6840031A6ABA339C
:103DC000505018885158800080180021FEF7BCF927
:103DD00007B0F0BDF80A0E0873B593220020384BE7
:103DE000D100384C591A0919013A0860002AF7D154
:103DF00035491960354999603549196135499961E5
:103E000035491962354999623549196335499963CC
:103E10003549196435490868010040310978042999
:103E200000D9334A9A640022052900D9314A1A651B
:103E3000426801251100083199652F496D421966C4
:103E40002E49DD6759662E4999662E4919672E4914
:103E5000521800219A670A005C1826000831803643
:103E60008434326025608029F6D1284B191DCA6739
:103E70001900FC318A60C42149005A508521036A27
:103E800049015B18802149039960694604230B802E
:103E9000038F684605334B801D49019202F024FCD4
:103EA000002800D001BE6B4600229B5E002B06DB83
:103EB0001F2213401E3A9A401300164A136073BD26
:103EC000FC0A0E089C04000008002640000726405B
:103ED0000407264008072640100726408403264092
:103EE000880326408C03264090032640F80A0E08DB
:103EF00094032640980326400400264000FF03F068
:103F0000480526404405264060F00000940F0E0846
:103F10007D3D001000E100E010B5244C2368002B2B
:103F200043D01A78002A0AD0DA6899682020FEF770
:103F30007BFB23688920DA689968FEF749FB2368D0
:103F40005A78002A16D09A6A196A3520FEF76CFB57
:103F500023684A20DA6A596AFEF766FB23688B20D9
:103F60009A6A196AFEF734FB23688D20DA6A596A67
:103F7000FEF72EFB23689A78002A16D09A6B196BED
:103F80005F20FEF751FB23687420DA6B596BFEF754
:103F90004BFB23688F209A6B196BFEF719FB236884
:103FA0009120DA6B596BFEF713FB10BD3C070E082E
:103FB0001FB56C4620800D4C029201946C466180C6
:103FC000072807D1FF2368460393FEF7CFFB0020A5
:103FD00004B010BD052807D1002905D16846039318
:103FE000FEF7C4FB0198F3E70148F1E7FC0F180165
:103FF000FF0F1A01022817D006D8002827D0012861
:1040000010D0022040420CE01223FF3398420DD022
:104010001423FF3398420CD0033B9842F1D1FA208D
:10402000C0017047886CFCE7886AFAE780200002CC
:10403000F7E7084B1B68413318780138431E984155
:10404000054B4042184080231B02C018E9E7034893
:10405000E7E7C046F80A0E08FE7FFFFF00127A006D
:1040600002235B4210B51360314B14001B681A0029
:104070003E321278824258D9052856D803F010FCF7
:1040800003192E43494F0B7B002B4ED04B7A002B4C
:1040900008D00B007A331B78022B03D08B6E236081
:1040A000002010BD0B0096331888FFF7A3FF206097
:1040B000F6E74A7B002A38D03F331B78002B0AD022
:1040C0008B7A002B07D00B0088331B78022B02D091
:1040D0000431CB6FE3E70B009833E5E78A7B002AD6
:1040E00023D03F331B78012B0AD9CB7A002B07D082
:1040F0000B0094331B78022B02D08C310B68CEE777
:104100000B009A33D0E7CB7B002B0ED00B009C33F7
:10411000CAE70B7C002B08D00B009E33C4E74B7C16
:10412000002B02D00B00A033BEE70248B9E7C0461F
:10413000F80A0E08FE0F1A01194B00B51360002390
:10414000052809D803F0ACFB030A13191F25002327
:10415000087B9631984206D1180000BD0023487BA9
:1041600098319842F8D00B8800211160F4E70023C1
:10417000887B9A319842F6D1EEE70023C87B9C31C8
:104180009842F0D1E8E70023087C9E319842EAD1BA
:10419000E2E70023487C9842DED0A031E3E7C04646
:1041A000FE0F1A01032819D004D801280FD028D9EE
:1041B00048790DE01223FF33984214D01423FF33C3
:1041C000984212D0033B98420BD00F4805E0887903
:1041D000434258410C4B4042184070470231C87F5F
:1041E000F6E7C879F4E7087AF2E70131CB7F002BD4
:1041F000EBD0064B1B68413318780138431E9841B9
:10420000E8E70020E9E7C046FE0F1A01F80A0E08A9
:1042100010B51B4B1B683E331B7883422DD90528F4
:104220002BD803F03DFB030C12181E240B7B002B34
:1042300023D00B0096331888FFF7B4FF10BD4B7BDB
:10424000002B1AD00B009833F5E78B7B002B14D092
:104250000B009A33EFE7CB7B002B0ED00B009C3387
:10426000E9E70B7C002B08D00B009E33E3E74B7C87
:10427000002B02D00B00A033DDE70248DEE7C0468A
:10428000F80A0E08FE0F1A010300A8331B6810B5C8
:104290000400002B02D00848584310BD0300A5338A
:1042A000187802F097F902000120A634237898408C
:1042B00040088018D840F0E740420F0010B50400D5
:1042C00001F02EFF002801D0044810BD0449200051
:1042D00001F0AAFF0028F8D0F6E7C046FD0F1A014A
:1042E0001027000070B50400150001F0BFFA002887
:1042F00001D0074870BD2900200001F0E9FA00282C
:10430000F7D1200001F05CFA0028F3D0F1E7C046B5
:10431000FD0F1A01030010B5040096331888210020
:10432000FFF768FE030000209A1C0FD022007032B5
:10433000118881420AD0E06E7334584303F0CEFAFC
:1043400021784B1E9941013103F0C8FA10BD0000DD
:1043500070B500250C00A84221D01B4B1B683F33D1
:104360001B7883421BD301281BD10B00983318887C
:10437000FFF740FE23002200843385321B7811783A
:1043800086342578821C1BD000291BD0002D06D036
:10439000584303F0A3FA290003F0A0FA050028000F
:1043A00070BD0228FBD10B009A331888FFF722FE5C
:1043B00023002200903391321B7811789234E0E789
:1043C0000025ECE70D00EAE7F80A0E08F8B504004E
:1043D0000F00012932D10300817A427B04309833E7
:1043E000C66F83301B8805780020814225D0824229
:1043F00031D018002100FFF7FDFD184BC018184BF5
:10440000984228D86B1E9D41164B6D421D40164B9D
:10441000ED182379002B1AD0AE421CD3134B9E42C9
:1044200019D821003800FFF793FF301A4642704137
:104430000F4E40420F4B3040C018F8BD0300C17A08
:10444000827B9A338C301B880668C579CCE7AE42F4
:1044500001D3094BE3E70748EFE7C04600F7C2FF87
:1044600000879303C863E3FF20BCBE0080F0FA021C
:1044700002F0E5FEFE0F1A0180D1F008F0B504004D
:104480008BB0002801D100F0D2FF0700404EA537C5
:10449000336838783E331B78984207D300203D4B71
:1044A0000593059D002D06D03B4D6EE005AA210029
:1044B000FFF742FEF5E7022820D01223FF3398428F
:1044C00045D0012800D071E0344B1B68002B13D07D
:1044D0001A78002A10D05A68A16C8A420CD19A68C6
:1044E000E16C8A4208D1DB68226D934204D123003B
:1044F00054331B78102B59D0294D46E0274B1B68AD
:10450000002B22D05A78002A1FD01A69A16A8A4249
:104510001BD15A69E16A8A4217D19A69216B8A4292
:1045200013D1DA69616B8A420FD11A6AA16B8A4290
:104530000BD15A6AE16B8A4207D19A6A216C8A428E
:1045400003D1DB6A626C934230D0164D1DE0134BF1
:104550001B68002B18D09A78002A15D022005632FA
:10456000D978127891420FD11A6BA16D8A420BD182
:104570005A6BE16D8A4207D19A6B216E8A4203D150
:10458000DB6B626E934211D0074D28000BB0F0BD7B
:10459000F80A0E08FE0F1A019F0F1A013C070E08B9
:1045A000570F1A01580F1A01560F1A0101F0C8FAD5
:1045B00002281DD06379002B1AD0D74AA36A9B1812
:1045C000D64A934201D900F035FFE36A013B632BE1
:1045D00001D900F02FFF236BD14A013B934201D94F
:1045E00000F028FF636B013B934201D900F022FFEA
:1045F000A379002B0ED02279A36C002A00D120E2EF
:10460000C84A934201D900F018FFE36C002B01D196
:1046100000F013FF237B002B0ED033683E331B7852
:10462000002B09D02300963318882100FFF7BAFD2C
:10463000002801D000F004FF637B002B0ED033680C
:104640003E331B78012B09D92300983318882100A9
:10465000FFF7A8FD002801D000F0F5FEA37B002B9A
:104660000ED033683E331B78022B09D923009A33CE
:1046700018882100FFF796FD002801D000F0E6FE23
:10468000E37B002B0ED033683E331B78032B09D914
:1046900023009C3318882100FFF784FD002801D0F7
:1046A00000F0D7FE237C002B0ED033683E331B78FE
:1046B000042B09D923009E3318882100FFF772FDCF
:1046C000002801D000F0C8FE637C002B0ED03368B8
:1046D0003E331B78052B09D92300A033188821000D
:1046E000FFF760FD002801D000F0B9FE01F0ACFB3F
:1046F00000285DD1637A002B5AD0237B002B01D197
:1047000000F0B0FE2300963318882100FFF772FCFA
:10471000854BC018854B984201D900F0A3FE844A0E
:10472000A36E9B182279002A00D18CE1814A934222
:1047300001D900F097FEE36E7F4A013B934201D915
:1047400000F090FE230070331B887C4A013B9BB233
:10475000934201D900F086FE230072331B78042BAC
:1047600001D900F07FFE23007433754A1B88934201
:1047700001D900F077FE230076331B780F2B01D987
:1047800000F070FE230077331B780F2B01D900F067
:1047900069FE230078336B491B888B4201D900F0F6
:1047A00061FE23007C331B88934201D900F05AFE3E
:1047B00033683F331B78002B13D0A37A002B10D023
:1047C000012001F069FC00280BD133683F331B78CE
:1047D000002B05D001212000FFF7F8FD002800D0B4
:1047E000594D33683F331B78012B00D83BE1E37A06
:1047F000002B00D137E1002D00D0C6E6022001F0E9
:104800004BFC002800D120E1237F002B00D02EE1BB
:10481000637D002B00D147E63368029340331B7859
:10482000002B00D140E63D7821002800FFF7F0FC86
:10483000002800D038E6029B3E331B789D4200D210
:1048400032E1424B0493049B002B00D02CE605AAD6
:1048500038782100FFF704FC3D4B059A05000490D1
:104860009A4200D820E6002800D01DE62300A83395
:104870001B68002B00D117E62200A6321178354ABA
:10488000354F53430292BB4200D90DE6032900D9AC
:104890000AE6A37D002B1DD0336840331B78012B23
:1048A00018D92300AC3318782100FFF7B1FC002899
:1048B00001D000F0B0FC2300AD331A7803331B683D
:1048C00002994B43BB4201D900F0A5FC032A01D950
:1048D00000F0A1FCE37D002B40D0336840331B780F
:1048E000022B3BD92300B43318782100FFF790FC4A
:1048F000002801D000F0BAFC2300B5331A78033346
:104900001B6802994B43BB4201D900F0AFFC032A5C
:1049100001D900F0ABFC21E000DC0BFFC0EA210173
:10492000E703000080F0FA0218FCFFFF18DDF50530
:1049300000CA91FE80BA8C01FEFF0300FE1F00003A
:10494000FF010000FF1F0000BF0F1A01FE0F1A0138
:104950003F0D030040420F0080D1F008237E002B62
:104960001DD0336840331B78032B18D92300BC3388
:1049700018782100FFF74CFC002801D000F06EFCF5
:104980002300BD331A7803331B6802994B43BB42A3
:1049900001D900F063FC032A01D900F05FFC637EBB
:1049A000002B1DD0336840331B78042B18D923000B
:1049B000C43318782100FFF72BFC002801D000F049
:1049C0006AFC2300C5331A7803331B6802994B43F2
:1049D000BB4201D900F05FFC032A01D900F05BFC67
:1049E000A37E002B1DD0336840331B78052B18D9CC
:1049F0002300CC3318782100FFF70AFC002801D0EF
:104A000000F08AFC2300CD331A7803331B68029927
:104A10005943B94201D900F07FFC032A01D900F0C3
:104A20007BFCE37E002B52D1637F002B6FD1A37CF4
:104A3000002B00D091E0E37C002B00D0A0E09B4D48
:104A4000A3E59B4ADDE59B4A71E633683F331B785B
:104A5000012B06D902212000FFF7B8FC002800D165
:104A6000D2E6954D91E5002D00D1CDE68DE52300F0
:104A7000D6331B78012B0AD0002B03D0032B08D090
:104A80008E4D82E5E379002B00D0C1E6F8E7237A6A
:104A9000F9E7631CDB7F002BF2D0336841331B78CE
:104AA000012B00D1B4E6EBE704AA21002800FFF7B0
:104AB00043FB88235B00984200D1F5E41423FF33C5
:104AC000984200D1F0E4032800D0BCE6ECE42300D7
:104AD000D4331E7821003000FFF79AFB002814D150
:104AE0002300D53302931B78042B0ED805AA21008E
:104AF0003000FFF7B5FA002807D1029B059A1B7812
:104B0000DA4013006E4A93428ED96E4D3DE5230084
:104B1000D7331B78002B03D0012B05D06A4D34E529
:104B2000237A002B83D1F9E7237F002BF6D02300D3
:104B3000D6331B78012BF3D0002B0CD0032BEDD1F7
:104B4000631CDB7F002BE9D0604B1B6841331B7873
:104B5000012BE3D16BE7E379E3E7637D002B01D120
:104B60005B4D12E52000FFF78FFB2300A23319787D
:104B7000013102F0B3FE524B984200D85BE7EFE7F9
:104B8000637D002B00D15AE72000FFF77DFBB84280
:104B900000D954E72300A33302931978013102F0BE
:104BA0009DFE2379002B0BD04A4B984200D946E753
:104BB000A37F002B06D1237D002B39D1464DE4E4A1
:104BC0003B4BF2E723000222D8331B88FF3293428B
:104BD00004D022D8002B28D0012B24D1617D0029BC
:104BE00021D00226934208D03C4AB619934204D001
:104BF0003B4A0436934200D0073E2000FFF744FBB7
:104C00002300DA331978013102F068FE310002F036
:104C100065FE2B4B9842CED905E030498B42DDD062
:104C20002F498B42DAD02F4DAFE401262E48E7E71B
:104C3000E37C002BC2D02000FFF726FBB84200D94E
:104C4000FDE62700E31C0393029BA4371978261D79
:104C5000013102F043FE3978013102F03FFE144B7E
:104C60009842ABD89621002001F0F6FD2378002B66
:104C700049D06378002B10D0E31CD87F012806D9D7
:104C8000631DDB7F002B33D102F034FB32E002F0F6
:104C90008FFB0028F4D0154D77E4F07F022801D077
:104CA0000528EDD102F0E4FBF3E7C0468C0F1A01B2
:104CB00000E1F50500AB8704BE0F1A01AF0F1A0122
:104CC0000084D7178F0F1A018E0F1A01F80A0E08E9
:104CD0008D0F1A0140787D018B0F1A01010200002F
:104CE00001030000890F1A0100127A006F0F1A01E8
:104CF00002F0D0FA0028CED102F054FCA378002BA9
:104D000074D002F02DFCA64B1B6841331B78012B9D
:104D100009D100F077FE631CDB7F002869D0002BEF
:104D200001D100F079FE08229E4B1E68237A1640BE
:104D300066D0002B04D17B2001F03AFD00F01EFE6E
:104D4000237F002B0ED02300D6331E7800F0F0FC1A
:104D5000864207D002F040FC002800D085E33000F6
:104D600000F0D2FC00F0ECFE6379022870D1002B39
:104D700001D100F0D3FEA379002B0ED0E06C002807
:104D800008D0230054331B7808220093216D0023A0
:104D9000FDF7B6F9A06C00F0AFFEA37C002B04D0A9
:104DA0002300A233187800F0F1FCE37C002B03D041
:104DB000029B187800F0C6FC237D002B02D03878C7
:104DC00000F09CFB2600122296363388FF32934275
:104DD0007CD12300A5331978002977D1012000F078
:104DE000ADFF00285ED0704DFFF7CFFB02F0C8FB8F
:104DF00089E7002B97D002F0CDFC00F0E7FD92E7A9
:104E0000002B9DD002F0C6FCA06D00280FD0E36DF2
:104E1000002B0CD033003200216E0096FDF770F9A4
:104E2000009633003200616EE06DFDF769F92300F2
:104E300056331878002800D0012000F0AFFD5B4801
:104E400000F078FD002800D17AE7594DFFF79DFB6F
:104E5000002B90D002F09EFCA06B002810D0E36BDA
:104E6000002B0DD00026216C330032000096FDF798
:104E700047F9009633003200616CE06BFDF740F9B2
:104E8000636B226BE16AA06A00F068FE002802D022
:104E9000484DFFF77AFB484800F00CFF002800D18E
:104EA00069E7F5E7012100F0E1FC00280BD1237B45
:104EB000002B14D03188002000F040FF00280ED0D5
:104EC0003E4DFFF762FB3E4DFFF75FFB230098333B
:104ED0001988012000F032FF0028E8D083E7A37B87
:104EE000002B0AD023009A331988022000F026FFF5
:104EF000002802D0334DFFF748FBE37B002B1BD18A
:104F0000237C002B29D1637C002B37D100F09CFF40
:104F1000002861D001F0CAFA07002000FFF7FAF973
:104F2000637A002B01D0874256D000F09FFF002803
:104F300052D0254DFFF729FB194B1B683E331B78D8
:104F4000032BDDD923009C331988032000F0F6FEE3
:104F50000028D5D01D4DFFF718FB114B1B683E33C1
:104F60001B78042BCFD923009E331988042000F02E
:104F7000E5FE0028C7D0164DFFF707FB084B1B685E
:104F80003E331B78052BC1D92300A0331988052097
:104F900000F0D4FE0028B9D00E4DFFF7F6FAC04657
:104FA000F80A0E08000027404E0F1A0140420F0079
:104FB0005A0F1A015F0F1A01B80B00004F0F1A01A8
:104FC0000F0F1A014D0F1A013F0F1A014C0F1A0152
:104FD0004B0F1A014A0F1A01637A002B00D096E09A
:104FE0002700A5373978002000F040FC002800D0C9
:104FF00069E72300A633197800F06AFC002800D086
:1050000061E712223388FF32934200D1B9E0C94FE1
:105010003B683F331B78002B5CD0012001F03CF84B
:10502000002800D0BFE0A37A002B22D0012001F09D
:1050300033F800281DD1230084331B7805AE33706C
:10504000230085331B787370230086331B78B3707D
:10505000230087331B78F370230088331B78337168
:1050600002F098FB31000120FFF728F9002800D05A
:10507000AFE03B683F331B78012B2BD9022001F0B6
:105080000BF8002800D0A7E0E37A002B22D0022002
:1050900001F002F800281DD1230090331B7805AEE3
:1050A0003370230091331B787370230092331B7885
:1050B000B370230093331B78F370230094331B7871
:1050C000337102F067FB31000220FFF7F7F8002888
:1050D00000D097E0012000F095FBA37D002800D1CF
:1050E0009CE0002B00D190E0022000F08BFBE37DE0
:1050F000002800D09EE0002B00D19DE02300B533B6
:105100001A78013B19780220FFF7ECF8ACE000F0C8
:105110009BFE002800D063E702F03CFBE36E05A88D
:105120000593230070331B888380230072331B7820
:105130008371230073331B78C371230074331B887E
:105140000381230076331B788372230077331B7827
:10515000C372230078331B88838123007A331B7842
:10516000837323007C331B88038200F0A3FE002896
:1051700000D0DEE6704800F02DFF002800D12FE7B8
:10518000D7E63B78002B00D041E7637B002B00D1B2
:1051900029E6230098331988012000F0CFFD00286C
:1051A00000D134E71FE6012001F0C4F92100060018
:1051B0000120FFF7CDF8A37A002B02D0864200D160
:1051C00031E702F0E7FA012000F07AFF002800D171
:1051D00029E75A4DFFF7D9F9022001F0ABF9210078
:1051E00006000220FFF7B4F8E37A002B02D08642D3
:1051F00000D149E702F0CEFA022000F061FF00285A
:1052000000D141E74E4DFFF7C0F9012000F00CFB43
:10521000002800D168E74B4DFFF7B7F9002B00D10C
:1052200062E72300AD331A78013B19780120FFF7BC
:1052300059F8EDE7002B14D03B6840331B78032B63
:1052400017D9032000F0DEFA237E002826D0002B99
:105250000FD1032000F0E8FA00280AD03A4DFFF7FA
:1052600094F9022000F0E0FA0028E5D0374DFFF76E
:105270008CF93B6840331B78042B1AD9042000F0CA
:10528000C1FA637E00282FD0002B12D1042000F039
:10529000CBFA00280DD02E4DFFF777F9002BE8D080
:1052A0002300BD331A78013B19780320FFF71AF861
:1052B000D2E73B6840331B78052B20D800F008FA72
:1052C000A37F002848D1002B4AD02300D8331F8861
:1052D0009E7800F007FA380000F0B4F9300000F0D2
:1052E000CBF900F0E1F93BE0002BE2D02300C5331D
:1052F0001A78013B19780420FEF7F4FFC9E705206E
:1053000000F080FAA37E002809D0002BD6D105201A
:1053100000F08AFA0028D1D00E4DFFF736F9002BA5
:10532000CCD02300CD331A78013B19780520FEF745
:10533000D9FFEFE7F80A0E08400D03002F0F1A01FE
:105340002E0F1A019E0F1A019C0F1A019D0F1A01B0
:105350009B0F1A019A0F1A01002B01D100F0C2F91C
:1053600000F03AF9E37E002819D0002B01D100F0BB
:105370003DF9637F002B04D02300D733187800F069
:1053800049F923003A4F55331E783B78B3421BD07E
:1053900002F022F9002813D0364DFFF7F6F8002B63
:1053A000E7D02300D4331F785E7800F01FF938006F
:1053B00000F0CCF8300000F0E3F800F0FBF8D8E79C
:1053C000300000F085FB3E7000F05AFBE3790028C6
:1053D00020D0002B0ED1A32001F0EAF900F050FB01
:1053E000002807D002F0F8F80028D5D100F052FBD1
:1053F0000028D1D12378002B08D0637D002B05D065
:105400002300A8332079196801F026FA02F0C2F9C6
:10541000FFF7BBF8002BEDD000F032FB0028E9D1FC
:1054200002F0DAF80028B7D100F016FBE2E7124DDF
:10543000FFF7ABF8114DFFF7A8F8114DFFF7A5F8EE
:10544000104DFFF7A2F8104DFFF79FF80F4DFFF733
:105450009CF80F4DFFF799F80E4DFFF796F80E4D9B
:10546000FFF793F80D4DFFF790F80D4DFFF78DF80E
:1054700040070E085C0F1A01FE0F1A01EF0F1A0108
:10548000EE0F1A01DF0F1A01DE0F1A01DD0F1A01EC
:10549000DC0F1A01DB0F1A01DA0F1A01CF0F1A0104
:1054A0001F0F1A0170477047F0230A041B0330B521
:1054B0001A400F240B0023401A43084B1D68830237
:1054C00028691B188020C0011A5018582040401A23
:1054D000411E884102494042084030BDF80A0E088A
:1054E0000300C200044B10301B6880021B69C058C7
:1054F0000F2318407047C046F80A0E0810B5020086
:10550000040000232B210720FEF752FD064B240246
:105510001B681A00883212681B689B181868034AB7
:1055200010402043186010BDF80A0E08FF00FFFF6E
:10553000054B1B681A0088321B6812689B18186894
:10554000000AC0B27047C046F80A0E0810B5020043
:10555000040000231F210720FEF72AFDA022F020CF
:105560000549D200000124028B580440034803403F
:105570001C438C5010BDC04600002640FFF0FFFFCA
:1055800010B502000400002320210720FEF710FDC3
:10559000A022E0200549D200C00124038B5804401A
:1055A000034803401C438C5010BDC04600002640F9
:1055B000FF8FFFFF10B50023012221210720FEF7F6
:1055C000F7FCA02280230349D20088581B02034322
:1055D0008B5010BD00002640A023034ADB00D058AA
:1055E0000004C00F7047C04600002640002310B5DD
:1055F0001A0022210720FEF7DBFCA0220349D2007B
:105600008B58034803408B5010BDC0460000264015
:10561000FF7FFFFF10B502000400002323210720B5
:10562000FEF7C6FCC021054A8900240213680C401D
:1056300003490B401C43146010BDC04600002740C6
:10564000FFFCFFFF10B50400020000231B21072010
:10565000FEF7AEFC044A054B0549D0580840054901
:105660000C402043D05010BD00002640040500002F
:10567000FEFCFFFF0103000010B504000200002340
:105680001C210720FEF794FC044A054B0549D0581D
:10569000240408402043D05010BDC04600002640DE
:1056A00004050000FFFF00FF10B5002301221D21AB
:1056B0000720FEF77DFC80230349044A1B06885817
:1056C00003438B5010BDC046000026400405000077
:1056D000024A034BD058C00F7047C0460000264016
:1056E00004050000002310B51A001E210720FEF754
:1056F0005FFC0349034A8B585B005B088B5010BD6D
:10570000000026400405000010B50200040000233C
:105710001A210720FEF74CFCA0230321034ADB00DB
:10572000D0580C4088432043D05010BD0000264084
:10573000A023034ADB00D058032318407047C0461B
:105740000000264010B502000400002319210720A4
:10575000FEF72EFC064B24061B681A0088321B68D5
:1057600012689B1818680002000A2043186010BDD8
:10577000F80A0E08044B1B681A0088321B6812686E
:105780009B181868000E7047F80A0E0810B5020042
:105790000400002318210720FEF70AFC064B240210
:1057A0001B681A008C3212681B689B181868034A21
:1057B00010402043186010BDF80A0E08FF00FFFFDC
:1057C00010B50D4B04001B6840331B78834211D980
:1057D0000200002314210720FEF7EAFB074BE0221A
:1057E000A400E418802300209200A1581B060B435C
:1057F000A35010BD0248FCE7F80A0E08000026403E
:1058000001004A00064A0300126800204032127864
:105810009A4204D9E033034A9B009858C00F70475E
:10582000F80A0E080000264010B5041E16D00C4BD6
:105830001B6840331B78834210D9020000231521D6
:105840000720FEF7B5FBE0220020064BA400E41879
:105850009200A3585B005B08A35010BD0248FCE710
:10586000F80A0E080000264001004A0037B5104B28
:1058700004001B680D0040331B78834216D90F29A2
:1058800014D86B46009019716A4600231621072030
:10589000FEF78EFB074BA400E418E0230F22002044
:1058A0009B00E15891432943E1503EBD0248FCE78B
:1058B000F80A0E080000264001004A00034BE030C1
:1058C0008000C0580F2318407047C0460000264093
:1058D00037B5114B04001B680D0040331B78834221
:1058E00017D9032915D86B46009019716A46002311
:1058F00017210720FEF75CFB084BA400E418E02307
:10590000302200209B00E1582D0191432943E150B2
:105910003EBD0348FCE7C046F80A0E0800002640DA
:1059200001004A00024B18694007C00F7047C0468B
:1059300000002740020010B50023112104000720B9
:10594000FEF736FB08230B4A11680B431360FFF781
:10595000E9FF002808D1002C01D1074810BD012023
:1059600000F026FF013CF2E760426041024C4042F9
:105970002040F3E70000274002004A00002310B552
:105980001A0012210720FEF713FB0821024A1368B0
:105990008B43136010BDC0460000274010B50200C5
:1059A0000400002313210720FEF702FB8021054A93
:1059B0004902240413680C4003490B401C43146043
:1059C00010BDC04600002740FFFFFEFF70B50E214E
:1059D000002301220720FEF7EBFA8023074D084C35
:1059E0001B062A59012013432B5100F0C7FEC02388
:1059F0002A59DB0513432B5170BDC04600002640D9
:105A00003C050000024A034BD0588000C00F70478D
:105A1000000026403C050000002310B51A000F21AD
:105A20000720FEF7C5FA0349034A8B58DB00DB0861
:105A30008B5010BD000026403C0500000449054A7B
:105A400080058B58800D9B0A9B0218438850704735
:105A5000000026403C05000010B5002301220B2168
:105A60000720FEF7A5FA80230349044A1B0688583D
:105A700003438B5010BDC046000026400C050000BB
:105A8000024A034BD058C00F7047C0460000264062
:105A90000C050000002310B51A000C210720FEF7AA
:105AA00087FAC023074A5B00D058803BFF3B184071
:105AB00005D1054953585B005B08535010BD03489E
:105AC000FCE7C046000026400C05000003004A0029
:105AD00010B50200040000230D210720FEF768FA2C
:105AE0000121034A034BD05888432043D05010BDB6
:105AF000000026400C050000064B10B5040098423B
:105B000007D8002302002E210720FEF751FA024B8E
:105B10001C6010BD00E1F5054C070E08002310B510
:105B20001A0008210720FEF743FA0349034A8B585D
:105B30005B005B088B5010BD000026402C05000068
:105B4000A6220549D2008B580220DB439B0702D0D6
:105B5000012388581840704700002640F0B589B0EE
:105B6000049005910692079306000C0015001F0093
:105B700004AA002324210720FEF71AFA0090002827
:105B800001D13B4B1E603B4A3B4BD15801920393E2
:105B900000296ADB394B3A4AF318934262D8631EF4
:105BA000632B5FD8374A6B1E93425BD8364A7B1E05
:105BB000934257D83000FA21F5308900FF3001F0C8
:105BC0008DFE02903148290047436808381801F0DB
:105BD00085FE80228446102300201202010011431A
:105BE0000F004F43BC4500D30800013B5208002B77
:105BF000F4D10299264B614358434B08C01801F079
:105C00006DFE244B98422DD90298234B40432349E3
:105C1000C01801F063FE644360436421323001F038
:105C20005DFE1F49684301F059FE03281AD8012878
:105C300001D8012358401B4A019B1B499B58000374
:105C400019401A4B0B431843019B03999850019B31
:105C5000039A9A5802231343019A5350044B1E602F
:105C600000230093009809B0F0BD114BF9E7C0463E
:105C700050070E08000026402C05000000DC0BFF3A
:105C8000C0EA2101E7030000CF07000080841E0066
:105C9000B36D0200890200005DF70000BBEE010059
:105CA000A0BB0D0020FF000008C0FFFFF7030000AD
:105CB00003004A00F8B5174C174D002302000600F8
:105CC00025210720FEF774F96359002B1FDB802381
:105CD000370062591B0613436351FFF731FF022857
:105CE0000AD0002F03D13800002E0FD009E0012088
:105CF00000F05EFD013FF0E7301E07D00020874234
:105D000004D1635905485B005B086351F8BD044842
:105D1000FCE7C046000026402C05000002004A00B7
:105D200003004A0010B5FFF70BFF0023022801D142
:105D3000014B1B68180010BD50070E0837B5174BF4
:105D400004001B680D003E331B78834224D90429CC
:105D500003D94B1EFF3B132B1ED86B466A469D8012
:105D60002621002307200094FEF722F9FF2D0CD9ED
:105D70001F231D400A4BA400E418C02304229B00EB
:105D8000E5504033E25000203EBD0723D0341D4093
:105D9000034BA400E550F6E70248F5E7F80A0E08C1
:105DA0000000264001004A00094A83009B18D022C7
:105DB0009200985807221040042807D1C022920070
:105DC00098581F2303408020400018437047C04666
:105DD0000000264010B5FFF7E7FF02281CD005D8C9
:105DE000002824D0012814D0002014E01223FF330F
:105DF000984214D01423FF33984215D0033B9842A5
:105E0000F2D10C4A0C4BD358002BEDDA8020000263
:105E100001E00A4B186810BDFFF784FFFBE7FFF7AE
:105E200081FD0028E0D0F1E7024A054BEBE7054889
:105E3000F1E7C046000026400C0500004C070E08A4
:105E40003C05000000127A00B023024ADB00D05863
:105E5000C00F704700002640B223034ADB00D05831
:105E6000012318407047C04600002640002310B5AB
:105E70001A0009210720FEF79BF8B1200A4BC00049
:105E80001A580A491140802292050A43B0211A503B
:105E9000C9005A580020520052085A5004495A5812
:105EA000520052085A5010BD00002640FFFFFFCF9D
:105EB0008C050000020070B5002304002721072094
:105EC000FEF776F8B020224AC0001358002B3DDBC5
:105ED000E17923684D1EA9419B0309069B0B0B43E7
